:020000040800F2
:10000000F007002001010008E12F00080D2F000873
:10001000112F0008E1050008E93100080000000088
:10002000000000000000000000000000E92F0008B0
:10003000E505000800000000E52F0008ED2F00088E
:100040001B0100081B0100081B0100081B01000820
:100050001B0100081B010008C51300081B01000854
:100060001B0100081B0100081B0100081B01000800
:100070001B0100081B0100081B0100081B010008F0
:100080001B0100081B0100081B0100081B010008E0
:100090001B0100081B0100081B0100081B010008D0
:1000A0001B0100081B0100081B0100081B010008C0
:1000B000953100081B0100081B0100081B01000806
:1000C0001B0100081B0100081B0100081B010008A0
:1000D0001B010008DD3100081B0100081B0100089E
:1000E000CD1300081B0100081B010008DFF80CD02D
:1000F00000F062F800480047ED310008F0070020EA
:100100000648804706480047FEE7FEE7FEE7FEE7B1
:10011000FEE7FEE7FEE7FEE7FEE7FEE7F12F000859
:10012000ED000008D2B201E000F8012B491EFBD21D
:1001300070470022F6E710B513460A4604461946F2
:10014000FFF7F0FF204610BD421C10F8011B0029EC
:10015000FBD1801A70472DE9F05F054600209246DA
:100160009B4688460646814640241BE02846414679
:100170004746224600F047F853465A46C01A914176
:1001800010D311461846224600F02EF82D1A67EBC0
:1001900001084F4622460120002100F025F817EB08
:1001A00000094E41201EA4F10104DFDC484631461F
:1001B0002A464346BDE8F09F1CB50948009009480F
:1001C00001900546009C06E0E06840F0010394E8D9
:1001D000070098471034AC42F6D3FFF78BFF0000BE
:1001E000943E0008B43E0008202A04DB203A00FABE
:1001F00002F1002070479140C2F1200320FA03F37E
:10020000194390407047202A04DB203A21FA02F07B
:100210000021704721FA02F3D040C2F12002914040
:10022000084319467047000040F22800C2F200005F
:10023000416842F2C1720131C0F20902914241604B
:1002400038BF704780B50021416008303221FFF788
:1002500070FF80BD2DE9F04F97B040F21801C2F257
:10026000000190F826200B788579C679077A90F8F6
:1002700009B090F80A9090F80BA0C4699A420B94C8
:1002800010D190F827204B789A420BD190F8282073
:100290008B789A4206D190F82920CB789A4201D1E6
:1002A000027D1AB117B0BDE8F08F00BF407D220A71
:1002B00009924FEA144802284FEA14620A923DD08C
:1002C0000128EFD143F62A60C0F60000026880885A
:1002D0000968ADF83C00ADF84C0040F20860C0F28F
:1002E0000010CDF83E000820C0F20640CDF84200D4
:1002F0004FF40070CDF84E10ADF846000DF132000D
:100300002A218DF832508DF833608DF834708DF8D5
:1003100035B08DF836908DF837A08DF852508DF8A5
:1003200053608DF854708DF855B08DF856908DF857
:1003300057A016940E92129202F0ECFD0BA800F05A
:10034000D9F80130AED140F21400C2F200000268C8
:1003500009985FFA88F1C0B2CDE900010A9802A9B4
:1003600040F2101881E8E108C2F2000843F6566135
:10037000E3B2C0F600014046CDF820A0CDF81C90B5
:1003800003F0E4FA404602F017FF40F21400C2F214
:10039000000040F228020168C2F200021378013125
:1003A000016003EB830002EB400084600573467339
:1003B000877380F80FB080F8109080F811A0581C57
:1003C000C1B2053918BF0146117017B0BDE8F08FF2
:1003D00080B58CB00021ADF8281009914FF0FF31A5
:1003E0000191ADF80810006843F62A61C0F60001DB
:1003F000CDF82A0088880A68ADF80E00ADF81E0016
:1004000040F2086040F21801C0F20010C2F2000190
:10041000049008200968C0F2064005904FF48070EF
:100420000891ADF8180001A82A21CDF80A20CDF8CE
:100430001A2002F06FFD0CB080BD000080B58CB0BA
:10044000006893881268CDF82A0043F62A60C0F647
:10045000000001920992026880880968ADF80E00D8
:10046000ADF81E0040F20860C0F2001004900820B1
:10047000C0F2064005904FF480700891ADF8180066
:1004800001A82A21ADF80830ADF82830CDF80A20AF
:10049000CDF81A2002F03EFD0CB080BD80B58CB0C6
:1004A00000684FF0FF32CDF82A001868ADF8082038
:1004B000CDF80A00CDF81A0008680192089040F2C1
:1004C0000860C0F2001004900820C0F206400992B3
:1004D000ADF828209A8805904FF48070ADF8180088
:1004E00001A82A21ADF80E20ADF81E2002F012FD61
:1004F0000CB080BD40F2280CC2F2000C02789CF8CF
:1005000008309A4211D143789CF809108B420CD1E3
:1005100081789CF80A30994207D1C1789CF80B3059
:10052000994202BF012040B270479CF812108A42E3
:1005300011D141789CF8133099420CD181789CF804
:100540001430994207D1C1789CF81530994202BF06
:10055000022040B270479CF81C108A4211D14178A9
:100560009CF81D3099420CD181789CF81E3099423C
:1005700007D1C1789CF81F30994202BF032040B2D6
:1005800070479CF826108A4211D141789CF8273098
:1005900099420CD181789CF82830994207D1C178D2
:1005A0009CF82930994202BF042040B270479CF861
:1005B00030108A4211D141789CF8312091420CD1FF
:1005C00081789CF83220914207D1C0789CF8331092
:1005D000884202BF052040B27047FF2040B27047FA
:1005E000FEE700007047000070B582B040F22005C1
:1005F000C2F20005297800F060068E423FD040F636
:100600000044C4F2010420460221002201F072F8E5
:10061000BF2168688DF8041001A901220A2301F0A6
:10062000B1FC032168688DF805100DF10501012268
:100630000A2301F0A7FC20460221012201F05AF80A
:100640002046022100222E70760901F053F89F21E6
:1006500068688DF806100DF1060101220A2301F0E9
:1006600091FC68680DF1070101220A238DF80760EB
:1006700001F088FC20460221012201F03BF802B083
:1006800070BD00002DE9F04F85B0064640F60049E8
:1006900039200D46C4F20109FFF7A6FF48460221A2
:1006A0000022002701F026F840F22008C2F20008DC
:1006B0001921D8F804008DF813100DF1130101224F
:1006C0000A234FF00A0A01F05DFCD8F804004FF04D
:1006D000FF0B0DF113010DF1120201238DF813B080
:1006E000CDF800A001F072FD9DF8124048460221AD
:1006F000012200F0FFFF002C00F04E81B8F802103C
:1007000000200022039200F0F5F948460221002261
:1007100000F0F0FFD8F804003A270DF11301012290
:100720000A238DF8137001F02DFCD8F804000DF1A8
:1007300013010DF1120201238DF813B0CDF800A0C2
:1007400001F044FD9DF8124048460221012200F0CC
:10075000D1FF484602210022A8F8024000F0CAFF5B
:10076000D8F804000DF1130101220A238DF813704B
:1007700001F008FCD8F804000DF113010DF112028C
:1007800001238DF813B0CDF800A001F01FFD9DF8F6
:10079000124048460221012200F0ACFFB8F80200E6
:1007A000022140EA0420A8F802004846002200F096
:1007B000A1FFD8F804000DF1130101220A238DF8DE
:1007C000137001F0DFFBD8F804000DF113010DF1F7
:1007D000120201238DF813B0CDF800A001F0F6FC51
:1007E0009DF812A04846022101220A2400F082FF4F
:1007F00048460221002200F07DFFD8F804000DF1E8
:10080000130101220A238DF8137001F0BBFBD8F805
:1008100004000DF113010DF1120201238DF813B044
:1008200000940A2701F0D2FC9DF8124048460221AC
:10083000012200F05FFF4AEA0420043880B2A84297
:1008400038BF05464846022100223A2400F052FFF4
:10085000D8F804000DF1130101220A238DF813408A
:1008600001F090FBD8F804000DF113010DF1120214
:1008700001238DF813B0009701F0A8FCAA469DF95A
:10088000125048460221012200F034FF484602215E
:10089000002200F02FFFD8F804000DF1130101220F
:1008A0000A238DF8134001F06DFBD8F804000DF118
:1008B00013010DF1120201238DF813B0009701F01E
:1008C00085FC48460221012200F014FFB5F1FF3FEC
:1008D00037DC48460221002200F00CFFD8F8040063
:1008E0000DF1130101220A238DF813404FF00A0B7A
:1008F00001F048FBBAF1000FCDF808A018D0FF2492
:100900000DF113070DF11205D8F8040039462A46F7
:100910000123AAF1010A8DF81340CDF800B001F0CF
:1009200055FC9DF812005FEA0A4106F8010BEBD175
:100930000020307048460221012200F0DBFE0298C0
:100940000390B8F802100C20B1F5406F88BF40F654
:10095000FF3100F0CFF848460221002200F0CAFE25
:100960009E21D8F804008DF813100DF11301012217
:100970000A2301F007FB4021D8F804008DF813107A
:100980000DF1130101220A2301F0FCFA484602216D
:10099000012200F0AFFE039F384605B0BDE8F08F9E
:1009A0002DE9F04F85B040F6004A40F220070D4691
:1009B000C4F2010AC2F200074FF00A084FF0FF0923
:1009C0000DF113060DF11204019000BF1F20FFF777
:1009D0000BFE50460221002200F08CFE78681F2199
:1009E0008DF811100DF1110101220A2301F0CAFA4C
:1009F00078683146224601238DF81390CDF80080A7
:100A000001F0E4FB9DF812B050460221012200F0F3
:100A100071FE5FEA0B70D9D402204FF4406100F000
:100A200069F805F5406081B2062000F063F8504691
:100A300002210022002600F05DFE78687A240DF184
:100A40000B0101220A238DF80B4001F09BFA786814
:100A500003A901220A238DF80C6001F093FA504695
:100A60000221012200F046FE50460221002200F041
:100A700041FE78680DF10D0101220A238DF80D4029
:100A800001F080FA8DB101980DF10E04461E00BFF1
:100A900016F8011F78688DF80E10214601220A23EE
:100AA000013D01F06FFA2804F2D1504602210122E3
:100AB00000F020FE50460221002200F01BFE9F2184
:100AC00078688DF80F100DF10F0101220A2301F053
:100AD00059FA082178688DF8101004A901220A2318
:100AE00001F050FA50460221012200F003FE05B049
:100AF000BDE8F08F2DE9F04182B00D460646FFF7C4
:100B000073FD40F60044C4F2010420460221002295
:100B10004FF0020800F0EEFD40F220073146C2F22D
:100B2000000768F35F1178688DF8041001A90122AD
:100B30000A2301F027FA78680DF1050101220A2342
:100B40008DF8055001F01EFA20460221012200F026
:100B5000D1FD0136F0B22D0AFFF746FD20460221F5
:100B6000002200F0C7FD786868F35F160DF10601FA
:100B700001220A238DF8066001F004FA78680DF16D
:100B8000070101220A238DF8075001F0FBF92046E6
:100B90000221012200F0AEFD02B0BDE8F0810000AC
:100BA0002DE9F04F83B0064640F60044D420884635
:100BB000C4F20104FFF718FD20460221002200F0D4
:100BC00099FD40F22007C2F20007542178688DF8A1
:100BD00005100DF1050101220A230A2501F0D2F9C1
:100BE00078680DF1060101220A238DF8066001F0F4
:100BF000C9F920460221012200F07CFDD6204146A1
:100C0000FFF778FF4FF0FF080DF1080A0DF10B0B0D
:100C10000DF10A06EA20FFF7E7FC20460221002238
:100C200000F068FD78680DF1070101220A238DF8B4
:100C3000075001F0A7F978680DF109015246012328
:100C40008DF80980009501F0C1FA7868594632465E
:100C500001238DF80B80009501F0B8FA9DF80A90F9
:100C600020460221012200F045FD5FEAC970D1D182
:100C700003B0BDE8F08F00002DE9F04F83B040F6DF
:100C8000004940F22008C4F20109C2F20008C8F885
:100C90000400484602210022002400F02BFDD8F871
:100CA00004000DF10B054FF0FF0A294601220A232B
:100CB0008DF80BA04FF00A0B01F064F9D8F804008E
:100CC0000DF10B0101220A238DF80B4001F05AF9B6
:100CD00048460221012200F00DFD022000F0D2FB67
:100CE0001D240DF10A0600BF48460221002200F033
:100CF00001FDD8F80400294601220A238DF80B4093
:100D000001F040F9D8F804002946324601238DF855
:100D10000BA0CDF800B001F059FA9DF80A704846D2
:100D20000221012200F0E6FC002FDDD000204FF070
:100D3000000AFFF759FC48460221002200F0DAFCC5
:100D4000D8F804000DF10B0101220A238DF80BA045
:100D50000A2601F017F9D8F80400FF250DF10B0160
:100D60000DF10A0201238DF80B50009601F02EFAC6
:100D70009DF80A4048460221012200F0BBFCFA2CF3
:100D800040F0108308200021A8F802A0FFF7B2FE6F
:100D90000A2040F6FF31FFF7ADFE04204FF440611A
:100DA000FFF7A8FE062041F2FF11FFF7A3FE0C207B
:100DB0000021FFF79FFE0E200021FFF79BFEC020C1
:100DC000FFF712FC48460221002200F093FCD8F8FD
:100DD000040040270DF10B0101220A238DF80B704E
:100DE00001F0D0F80D21D8F804008DF80B100DF1AA
:100DF0000B0101220A2301F0C5F848460221012215
:100E000000F078FCC120FFF7EFFB484602210022EA
:100E100000F070FCD8F804004FF0410B0DF10B010D
:100E200001220A238DF80BB001F0ACF8D8F80400C9
:100E30000DF10B0101220A238DF80BA001F0A2F89D
:100E400048460221012200F055FC484602210022BA
:100E500000F050FC8221D8F804008DF80B100DF141
:100E60000B0101220A2301F08DF83221D8F8040089
:100E70008DF80B100DF10B0101220A2301F082F80D
:100E800048460221012200F035FCC62040F61241FE
:100E9000FFF730FEC420FFF7A7FB484602210022DF
:100EA00000F028FCD8F8040044240DF10B010122C5
:100EB0000A238DF80B4001F065F81221D8F80400E0
:100EC0008DF80B100DF10B0101220A2301F05AF8E5
:100ED00048460221012200F00DFCCA2040F2DC51FC
:100EE000FFF708FEE420FFF77FFB484602210022BF
:100EF00000F000FCD8F804000DF10B0101220A23D8
:100F00008DF80B4001F03EF8D8F804000DF10B010C
:100F100001220A238DF80BA001F034F84846022183
:100F2000012200F0E7FBE520FFF75EFB48460221C7
:100F3000002200F0DFFB4521D8F804008DF80B10EB
:100F40000DF10B0101220A2301F01CF8D8F804006E
:100F50000DF10B0101220A238DF80BA001F012F80C
:100F600048460221012200F0C5FBE220FFF73CFBCE
:100F700048460221002200F0BDFB4221D8F80400BF
:100F80008DF80B100DF10B0101220A2300F0FAFF7E
:100F90002021D8F804008DF80B100DF10B0101226F
:100FA0000A2300F0EFFF48460221012200F0A2FBD5
:100FB000E320FFF719FB48460221002200F09AFBCC
:100FC0004321D8F804008DF80B100DF10B0101221C
:100FD0000A2300F0D7FF0721D8F804008DF80B1082
:100FE0000DF10B0101220A2300F0CCFF484602213B
:100FF000012200F07FFBE020FFF7F6FA48460221CD
:10100000002200F077FBD8F804000DF10B0101225B
:101010000A238DF80B7000F0B5FF1921D8F80400F1
:101020008DF80B100DF10B0101220A2300F0AAFF2D
:1010300048460221012200F05DFBE120FFF7D4FACF
:1010400048460221002200F055FBD8F804000DF1BB
:101050000B0101220A238DF80BB000F093FF9821B9
:10106000D8F804008DF80B100DF10B0101220A23B2
:1010700000F088FF48460221012200F03BFBE420FB
:10108000FFF7B2FA48460221002200F033FBD8F8FD
:10109000040004240DF10B0101220A238DF80B40FA
:1010A00000F070FFD8F804000DF10B010DF10A02F9
:1010B00001238DF80B50009601F088F8D8F8040051
:1010C0000DF10B010DF10A0201238DF80B50009672
:1010D00001F07CF848460221012200F00BFBE520DC
:1010E000FFF782FA48460221002200F003FB0521A7
:1010F000D8F804008DF80B100DF10B0101220A2322
:1011000000F040FFD8F804000DF10B010DF10A02C8
:1011100001238DF80B50009601F058F8D8F8040020
:101120000DF10B010DF10A0201238DF80B50009611
:1011300001F04CF848460221012200F0DBFAE220DF
:10114000FFF752FA48460221002200F0D3FAD8F8FD
:10115000040002270DF10B0101220A238DF80B7008
:1011600000F010FFD8F804000DF10B010DF10A0298
:1011700001238DF80B50009601F028F8D8F80400F0
:101180000DF10B010DF10A0201238DF80B500096B1
:1011900001F01CF848460221012200F0ABFAE320DE
:1011A000FFF722FA48460221002200F0A3FA0321A9
:1011B000D8F804008DF80B100DF10B0101220A2361
:1011C00000F0E0FED8F804000DF10B010DF10A0269
:1011D00001238DF80B50009600F0F8FFD8F80400BA
:1011E0000DF10B010DF10A0201238DF80B50009651
:1011F00000F0ECFF48460221012200F07BFAE020DB
:10120000FFF7F2F948460221002200F073FAD8F8FD
:1012100004000DF10B0101220A238DF80BA000F050
:10122000B1FED8F804000DF10B010DF10A02012303
:101230008DF80B50009600F0C9FFD8F804000DF1AE
:101240000B010DF10A0201238DF80B50009600F0FE
:10125000BDFF48460221012200F04CFAE120FFF7D1
:10126000C3F948460221002200F044FAD8F80400ED
:1012700001218DF80B100DF10B0101220A2300F062
:1012800081FED8F804000DF10B010DF10A020123D3
:101290008DF80B50009600F099FFD8F804000DF17E
:1012A0000B010DF10A0201238DF80B50009600F09E
:1012B0008DFF48460221012200F01CFA10204FF455
:1012C0008071FFF76DFC142040F27641FFF768FC57
:1012D0001F20FFF789F948460221002200F00AFA90
:1012E0009B21D8F804008DF80B100DF10B010122A1
:1012F0000A2300F047FED8F80400C0218DF80B1037
:101300000DF10B0101220A2300F03CFE48460221A8
:10131000012200F0EFF97520FFF766F94846022137
:10132000002200F0E7F95521D8F804008DF80B10E1
:101330000DF10B0101220A2300F024FED8F804006D
:101340000DF10B0101220A238DF80B7000F01AFE3B
:1013500048460221012200F0CDF9012000F092F868
:1013600048460221002200F0C5F99F21D8F8040068
:101370008DF80B100DF10B0101220A2300F002FE83
:10138000D8F804000DF10B0101220A238DF80B405F
:1013900000F0F8FD48460221012200F0ABF903B04D
:1013A000BDE8F08F43F63060C0F6000001F004FFA6
:1013B00048464FF48061002200F09CF903B0BDE87C
:1013C000F08F0000012000F07FB800004FF40060B3
:1013D00000F07AB890F82110022923D1026840F277
:1013E000040C1168C4F2020C21F00E0111601368A4
:1013F0002F21C4F202018A4223F00103136015DD9C
:101400003023C4F202039A421CD04423C4F20203E4
:101410009A421BD05823C4F202039A421CD14FF4C3
:10142000803321E004218163012070470823C4F246
:1014300002039A420ED01C23C4F202039A420BD13B
:10144000102311E04FF480730EE000BF4FF480537F
:101450000AE000BF012307E00CF168014FF0807340
:101460008A4208BF4FF48013CCF80030416B4FF430
:1014700080720029028404BF0020704780B588472D
:10148000002080BDB0B5044600F03AF9054640F2B0
:101490000800C2F200000078611C18BF044400BFBD
:1014A00000F02EF9401BA042FAD3B0BD012818BFAE
:1014B000704740F2B400C2F200004168002904BF46
:1014C000012101707047000040F21441C4F2010193
:1014D0000A68024214BF08607047FFF7E7BF0000C8
:1014E0002DE9F04F82B00E68002E00F0FF8040F230
:1014F0000C4C40F2004E41F20042C4F2010CC4F226
:10150000010EC4F201020427002401234FF0000A57
:101510004FF00009904208BF0327009749E000BF41
:1015200041F20002C4F20102009F904208BF02276C
:1015300004F00C030F229A402BEA020207FA03F38D
:101540004FEA9A051A4346F825204E68F203DEF862
:10155000002054BF22EA080242EA0802CEF8002026
:10156000DEF80420B30354BF22EA080242EA08026C
:10157000CEF80420F302DEF8082054BF22EA080265
:1015800042EA0802B302CEF80820DCF800204FF04F
:10159000010354BF22EA080242EA0802CCF8002004
:1015A0000E680AF1010A36FA0AF204F1040400F0A6
:1015B0009D8003FA0AFB16EA0B08F1D04E684FF63D
:1015C000FF72C1F21002964212DC122E56D8DFE8EA
:1015D00006F0350B4D4955555555555555555555ED
:1015E00055555545510000BFD1F80C9046E000BF5D
:1015F0004FF6FF72C1F2210296420FDC0022C1F2C7
:10160000110296421AD00022C1F21202964215D05F
:101610000022C1F22102964210D02FE00022C1F236
:10162000220296420AD00022C1F23102964205D02F
:101630000022C1F23202964220D100BF8A684AB12C
:10164000012A14BFC0F814B0C0F810B04FF0080958
:1016500014E000BF4FF0040910E000BFCA6802F1B7
:1016600004090BE04FF0000908E000BFCA6802F16E
:10167000080903E0CA6802F10C0900BF02462646C9
:10168000B8F5807F24BF0432203E17680F25B5408F
:1016900027EA050509FA06F635431560CA79D20628
:1016A0007FF57EAF41F21803C4F202031A68AEF56B
:1016B0007E7642F001021A601A6802F0010201927D
:1016C000019A2AF0030256F802B040F60002C4F272
:1016D0000102904208D040F60042C4F2010290425A
:1016E0007FF41EAF012723E7002721E702B0BDE802
:1016F000F08F0000002A08BF090401617047000054
:1017000040F2EC30C2F200000068704740F208007E
:1017100040F2EC31C2F20000C2F2000100780A6827
:10172000104408607047000080B542F20000C4F227
:101730000200016841F010010160032000F08CF804
:10174000002000F005F800F027F8002080BD000020
:1017500070B540F20806C2F2000640F2100132787D
:10176000C2F200014FF47A730968B3FBF2F2044647
:10177000B1FBF2F1084600F0B1FE0F2C4FF001056D
:1017800008D838B94FF0FF3021460022002500F07C
:1017900037F87460284670BD82B041F21800C4F278
:1017A00002000168022241F001010160016801F0BC
:1017B000010101910199416841F080514160406807
:1017C00000F08050009000980420C4F201000168ED
:1017D00062F31A61016002B070470000002848BF40
:1017E000704700F01F01012202FA01F11C2202EAF7
:1017F000D0004EF20012CEF200028150704700007D
:1018000010B54EF60C5CCEF2000CDCF80030C3F3E1
:10181000022E8EF00704042C28BF0424BEF103031B
:101820004FF0FF3E0EFA04F438BF0023A143994065
:101830000EFA03F39A43114300F00F0200F16043E4
:101840000901043A03F564436244002848BF02F1E9
:101850000C03197010BD00004EF60C51CEF20001C1
:101860000A684FF6FF031A4060F30A2242F08060D4
:1018700040F0FD7008607047002804BF01207047E9
:101880002DE9F04381B042F20008C4F20208044698
:10189000D8F800000D4600F0070081420CD9D8F8B6
:1018A000000020F007002843C8F80000D8F8000026
:1018B00000F00700A8426CD1206841F204098107BA
:1018C000C4F2020917D5410705D5D9F8001041F433
:1018D000E061C9F80010010705D5D9F8001041F4FE
:1018E0006051C9F80010D9F80010A26821F0F00189
:1018F0001143C9F80010C00742D1D8F8000000F029
:10190000070085420CD2D8F8000020F007002843D9
:10191000C8F80000D8F8000000F00700A84238D14D
:101920002068410707D5D9F80010E26821F4E0618A
:101930001143C9F80010000708D5D9F80000216943
:1019400020F4605040EAC100C9F80000D9F8002036
:1019500002F00C00082841F20020C0F27A004DD1BC
:1019600043F61A63C2F38341C0F60003595CD20305
:1019700038D440F60010C0F23D0048433EE000BFBE
:10198000606859F8041C022808D0012826D1890370
:1019900006D4012001B0BDE8F08300BF8901F8D56D
:1019A000D9F8001021F003010843C9F80000FFF73F
:1019B000A7FE064641F28837D9F80000616800F0BA
:1019C0000C00B0EB810F98D0FFF79AFE801BB84255
:1019D000F2D9032001B0BDE8F08300BF8907D8D554
:1019E000DEE700BFD9F8002043F60063C2F34042AF
:1019F000C0F600039A5C4843B0FBF2F0D9F800103F
:101A000043F60262C1F30311C0F60002515C40F2DA
:101A1000100220FA01F140F20C00C2F2000000684E
:101A2000C2F200021160FFF793FE002001B0BDE892
:101A3000F083000040F2100041F20401C2F2000005
:101A4000C4F202010068096843F61262C1F3022180
:101A5000C0F60002515CC8407047000040F2100020
:101A600041F20401C2F20000C4F2020100680968F8
:101A700043F61262C1F3C221C0F60002515CC840B5
:101A800070470000002804BF012070472DE9F04195
:101A900082B00446007841F20006C007C4F2020694
:101AA0000CD0706800F00C00042840F08180306891
:101AB000800303D56068002800F046812078800705
:101AC0001BD5706810F00C0F09D0706800F00C0086
:101AD000082840F087807068C00300F18380306878
:101AE000800703D52069012840F02E8130686169A4
:101AF00020F0F80040EAC10030602078000713D4DD
:101B0000207840072CD4E569002D00F0188170681A
:101B100000F00C00082840F0A780012D40F004815F
:101B2000012002B0BDE8F081A069002800F08480A7
:101B30000020C4F242200121C0F88014FFF7E0FD2C
:101B4000054600BF706A800700F1B280FFF7D8FD3C
:101B5000401B0228F6D9032002B0BDE8F08100BF87
:101B6000F0695FEAC00808D4F06940F08050F06185
:101B7000F06900F080500090009847F20007C4F22E
:101B800000073868C00549D4386840F48070386070
:101B9000FFF7B6FD054600BF3868C0053ED4FFF725
:101BA000AFFD401B6428F7D9032002B0BDE8F081E7
:101BB000706800F00C00082803D17068C0033FF57E
:101BC00076AF61683068002900F00C81B1F5A02F74
:101BD00000F00081B1F5803F40F01A8140F4803080
:101BE0001CE100BF2069002840F20000C4F242203E
:101BF00000F0888001210160FFF782FD054600BFEB
:101C0000306880073FF572AFFFF77AFD401B02286E
:101C1000F6D9032002B0BDE8F08100BFE168306A68
:101C2000002900F09D80052900F09280012940F0F4
:101C3000AF8040F00100B1E00020C4F2422000215A
:101C4000C0F88014FFF75CFD054600BF706A80078E
:101C50007FF556AFFFF754FD401B0228F6D903204D
:101C600002B0BDE8F08100BF0027C4F24227002087
:101C70003866FFF745FD022D05460DD1306880011D
:101C800040F1DE80FFF73CFD401B02284FF00300CF
:101C9000F4D902B0BDE8F081306880014FD5FFF77C
:101CA0002FFD401B02284FF00300F5D9F1E700BFDC
:101CB00040F21000C2F20000006844F6D351C1F2B5
:101CC0006201A0FB0101480A019000BF00BF01981A
:101CD000411E002801913FF413AF00BF0198411E3F
:101CE000002801913FF40CAF00BF0198411E00286D
:101CF00001913FF405AF00BF0198411E00280191FA
:101D0000E4D1FDE600210160FFF7FAFC054600BFC3
:101D1000306880077FF5F1AEFFF7F2FC401B022828
:101D20004FF00300F4D9B4E77068216A00F4803200
:101D30008A4209D1616A00F47010884204D10020FF
:101D400002B0BDE8F08100BF012002B0BDE8F08123
:101D500040F004003062306A40F001001EE000BF35
:101D600020F001003062306A20F004003062FFF79A
:101D7000C7FC054641F28837306A800720D5FFF757
:101D8000BFFC401BB8424FF00300F5D981E700BF0C
:101D900020F001003062306A20F004003062FFF76A
:101DA000AFFC054641F28837306A800708D4FFF758
:101DB000A7FC401BB842F7D9032002B0BDE8F08170
:101DC000B8F1000F3FF59FAEF06920F08050F06150
:101DD00099E600BF40F480203060306840F48030E5
:101DE0001CE000BF20F480303060306820F4802098
:101DF0003060FFF785FC0546306880037FF55EAEF6
:101E0000FFF77EFC401B64284FF00300F4D940E745
:101E100020F480303060306820F480203060FFF79C
:101E20006FFC0546306880033FF548AEFFF768FC5D
:101E3000401B6428F6D9032002B0BDE8F08100BF42
:101E4000206AB0F5803F05D17168A26821F40031A5
:101E5000114371607168626A21F47411114308437F
:101E6000706001203866FFF74BFC04463068800143
:101E70003FF565AFFFF744FC001B02284FF003005D
:101E8000F4D906E7002804BF01207047B0B5044626
:101E90000020A06294F8511029B984F8500020461F
:101EA00000F032F80020022184F85110D4E9001E1D
:101EB000D4E9023C0A6822F040020A6043EA0E02BA
:101EC000236942EA0C0242EA030CD4E90532E569CF
:101ED0004CEA030C02F4007E4CEA0E0343EA050CC4
:101EE000256AA36A45EA0C052B430B60042303EA29
:101EF00012424A60CA6922F40062CA610121606527
:101F000084F85110B0BD000070B586B040F60004F2
:101F1000C4F20104006804F52051002688420596A9
:101F2000CDE90366029601D006B070BD41F21800FB
:101F3000C4F20200016802AD41F480510160016801
:101F400001F4805101910199016841F0040101609F
:101F50000068294600F0040001900198A02002903A
:101F600002200390032005902046FFF7B9FA402095
:101F7000CDE90206204629460496FFF7B1FA06B0DD
:101F800070BD00002DE9F04381B0044690F8500088
:101F9000012803D1022001B0BDE8F0834FF0010811
:101FA0001D460F46164684F85080FFF7A9FB94F8AB
:101FB0005110012942D18146002F4FF0010018BF76
:101FC000002E00F0FB800320002284F8510062659F
:101FD0002763A686E686A263A287E287A0683146C9
:101FE000B0F5004F20682264626403D1026842F4B5
:101FF000804202600268520603D4026842F0400246
:10200000026062680139E368B2FA82F2B1FA81F1E2
:1020100052094909B3F5006F41EA02013CD131B1DF
:1020200037F8021BC1602763E08E0138E086E08E3E
:1020300000286BD0681C0ED11DE000BF0220BDE05F
:10204000216B31F8022BC2602163E08E0138E086FB
:10205000E08E00285AD0206881688907F0D4FFF705
:102060004FFBA0EB0900A842F2D338E0FFF748FB92
:10207000E08E00284AD0206881688907F6D5216B58
:1020800031F8022BC2602163E08E0138E086E08ED9
:102090000028F0D13AE000BF39B139780173206BE4
:1020A00001302063E08E0138E086E08E70B3681C5A
:1020B0000BD11BE0216B09780173206B0130206389
:1020C000E08E0138E086E08E00B3206881688907E1
:1020D000F0D4FFF715FBA0EB0900A842F3D30320CF
:1020E0006CE000BFFFF70CFBE08E78B120688168E0
:1020F0008907F7D5216B09780173206B01302063C4
:10210000E08E0138E086E08E0028EFD120688168FB
:10211000090646D5691C0ED0FFF7F2FAA0EB0901BB
:102120002068A94212D281680906F5D439E000BFBF
:102130008168090635D58168090632D581680906A6
:1021400044BF81685FEA01612BD5F1E7416821F066
:10215000E00141606168B1F5827F0AD1A168B1F503
:10216000004F02D0B1F5806F03D1016821F040012A
:102170000160A16AB1F5005F07D1016821F4005147
:102180000160016841F400510160012184F851109F
:10219000002184F85010616D41F02001616520211B
:1021A0006165A16831B900210091C1680091806822
:1021B00000900098606D002818BF0120002184F86D
:1021C000518084F8501001B0BDE8F0832DE9F04152
:1021D00082B0044690F85000012803D1022002B0DA
:1021E000BDE8F08101201F4615460E4684F85000D8
:1021F000FFF786FA94F851108046012940F0968046
:10220000002E4FF0010018BF002D00F05D81002F5F
:1022100000F05A8194F85100002104281CBF0520C9
:1022200084F851006165A563E787A7872663E78681
:102230002068A786216461640168490603D40168A7
:1022400041F04001016061687B1EE268B1FA81F1F2
:10225000B3FA83F3089D49095B09B2F5006F41EABF
:10226000030173D131B136F8021BC1602663E08EE1
:102270000138E0860126681C31D101E0FFF740FA01
:10228000E08E18B9E08F002800F0C88020688168CF
:1022900089070CD5E18E51B1012E08D1216B0026A2
:1022A00031F8022BC2602163E18E0139E186816839
:1022B000C907E3D0E18F0029E0D0C068A16B0126F7
:1022C00021F8020BA163E08F0138E087D6E700BF59
:1022D000FFF716FAA0EB0800A84280F0B180E08E6C
:1022E00018B9E08F002800F099802068816889077C
:1022F0000CD5E18E51B1012E08D1216B002631F8A9
:10230000022BC2602163E18E0139E1868168C90731
:10231000DED0E18F0029DBD0C068A16B012621F857
:10232000020BA163E08F0138E087D1E76068B0F568
:10233000827F09D104294FF0020040F0C580A168D6
:1023400000293FF45DAFBFE00220BDE039B1317834
:102350000173206B01302063E08E0138E086012696
:10236000681C33D102E000BFFFF7CAF9E08E10B954
:10237000E08F002852D02068816889070ED5E18E51
:1023800061B1012E0AD1216B002609780173216BFE
:10239000206801312163E18E0139E1868168C90736
:1023A000E2D0E18F0029DFD0C068A16B0126087060
:1023B000A06B0130A063E08F0138E087D4E700BF55
:1023C000FFF79EF9A0EB0800A84239D2E08E08B9C9
:1023D000E08F18B32068816889070ED5E18E61B15E
:1023E000012E0AD1216B002609780173216B206828
:1023F00001312163E18E0139E1868168C907DFD0AF
:10240000E18F0029DCD0C068A16B01260870A06BA9
:102410000130A063E08F0138E087D1E72168886848
:1024200000061CD5681C10D0FFF76AF9A0EB080065
:102430002168A84220D288680006F5D40FE000BFCA
:10244000032041E08868000609D58868000606D5A3
:102450008868000644BF88685FEA0060F2D4A0681C
:1024600000284FF000002FD10190CA6801928968BE
:102470000191019928E000BF486820F0E000486021
:102480006068B0F5827F0AD1A068B0F5004F02D035
:10249000B0F5806F03D1086820F040000860A06AA2
:1024A000B0F5005F07D1086820F4005008600868A4
:1024B00040F400500860012084F85100616D41F043
:1024C0002001616520216165012184F851100021FE
:1024D00084F8501002B0BDE8F0810000411E0020D9
:1024E000B0EB116F1CBF012070474EF21002CEF20C
:1024F000000251604EF62351CEF20001F0230B7022
:10250000072190601160704770470000704700001D
:1025100090F83C20012A4FF0020219D080B580F8D3
:102520003D2002685368D2F808C091E8024023F0C9
:10253000700319432CF0800343EA0E03516093604B
:102540000121002280F83D1080F83C20BDE8804049
:1025500010467047002804BF0120704710B590F85E
:102560003D1031B9002180F83C10044600F056F8C7
:102570002046022180F83D10016840F2FF740B688C
:10258000C4F2000442F6004CA142C4F2010C15DC76
:10259000B1F1804F1AD040F20042C4F200029142E1
:1025A00014D0A14218DCB1F1804F1DD040F200429E
:1025B000C4F20002914217D01AE000BF614505D075
:1025C00040F60002C4F200029142EAD1826823F090
:1025D00070031343A142E6DD614505D040F60002D9
:1025E000C4F20002914203D1026923F44073134301
:1025F000846923F08002D0F804E0C3682243614577
:102600000A60CB62C1F828E002D14269CCF83020E0
:1026100001224A6180F83D20002010BD0068B0F121
:10262000804F18BF704780B582B041F21C00C4F2E1
:1026300002000168002241F00101016000680021F0
:1026400000F00100019001981C20FFF7D9F81C2030
:1026500002B0BDE88040FFF7C1B800000068C16863
:1026600041F00101C160816801F00701062903D032
:10267000016841F0010101600020704790F83C20A2
:10268000012A4FF0020248D080B580F83D20D0F8F2
:1026900000C04FF67772DCF8083023EA0202CCF86B
:1026A00008200B683F2B1DDD5F2B39DD602B5BD0D5
:1026B000B3F5005F00F09880702B26D1D1E901E3DB
:1026C000C968DCF8082043EA0E0322F47F4243EA9B
:1026D00001211143CCF80810DCF8081041F0770113
:1026E00011E000BF1F2B03DC33B1102B04D00CE032
:1026F000202B01D0302B08D1DCF8081021F070011C
:10270000194341F00701CCF808100121002280F89C
:102710003D1080F83C20BDE880401046704700BF67
:10272000402B41D0502BF0D1D1F804E0C968DCF83F
:102730002030DCF8202022F00102CCF82020DCF848
:10274000182022F0F00242EA011123F00A0242EAC4
:102750000E02CCF81810CCF82020DCF8081041F05C
:10276000570121F02001CEE7D1F804E0C968DCF878
:10277000203023F01003CCF82030DCF81830DCF8DF
:10278000202023F4704322F0A00243EA013142EA00
:102790000E12CCF81810CCF82020DCF8081041F00C
:1027A000670121F01001AEE7D1F804E0C968DCF858
:1027B0002030DCF8202022F00102CCF82020DCF8C8
:1027C000182022F0F00242EA011123F00A0242EA44
:1027D0000E02CCF81810CCF82020DCF8081041F0DC
:1027E000470121F030018EE7D1E901E3C968DCF847
:1027F000082043EA0E0322F47F4243EA01211143F9
:10280000CCF80810DCF8081041F480417BE70000A8
:102810007047000010B5016804460869800744BF8E
:10282000C8685FEA807039D40869400744BFC86847
:102830005FEA40703ED40869000744BFC8685FEA99
:10284000007045D40869C00644BFC8685FEAC0602C
:102850004AD40869C0071CBFC8685FEAC07051D17C
:102860000869000644BFC8685FEA006052D408697E
:10287000400644BFC8685FEA406053D408698006D8
:1028800046BFC8685FEA806010BD6FF02002204636
:102890000A61BDE81040FFF739BE00BF6FF00200CB
:1028A0000861012020778869800743D02046FFF720
:1028B000AFFF45E06FF004000861022020778869CF
:1028C00010F4407F40D02046FFF7A2FF42E000BF57
:1028D0006FF00800086104202077C86980073DD0A8
:1028E0002046FFF795FF3FE06FF0100008610820D9
:1028F0002077C86910F4407F3AD02046FFF788FF60
:102900003CE000BF6FF001000861204600F03EF897
:102910002168A5E76FF0800008612046FFF7F4FD0D
:102920002168A4E76FF040000861204600F036F807
:102930002168A3E7204600F025F8204600F024F89F
:102940002168002020776FE7204600F01BF8204622
:1029500000F01AF82168002020776CE7204600F08C
:1029600011F8204600F010F821680020207769E770
:10297000204600F007F8204600F006F82168002005
:10298000207766E770470000704700000068B0F1EC
:10299000804F18BF7047FDF747BC0000704700002C
:1029A00070470000B0B501680A68CC684B6902F056
:1029B0002F05202D04F0200512D18DB190F83A207A
:1029C000222A40F017818268B2F5805F3ED1036908
:1029D000826A4968002B61D0C9B222F8011B61E00C
:1029E0005FEA027C1EBF03F0010E04F4907313EB48
:1029F0000E0337D1130617D514F0800314D090F8C6
:102A00003920212A40F0F6808368026AB3F5805F9E
:102A100030D113886FF35F234B600369002B14BF21
:102A200001320232026229E0520640F1E38014F0E2
:102A3000400208BFB0BDCA6822F04002CA6020212F
:102A400080F83910BDE8B04000F05EBA026949680C
:102A5000002A826A18BF01F07F01531C8362117043
:102A600021E000BFD30718BF14F4807336D1530799
:102A70003AD440E0531C036212784A60C28C013A97
:102A80001304C28440F0B680C86820F08000C8609B
:102A9000C86840F04000C860B0BD00BF6FF35F2160
:102AA00022F8021B8262C18D01390A04C18540F0FF
:102AB000A1800168CA6822F02002CA60CA6822F4B4
:102AC0008072CA604A6922F001024A61202180F8BE
:102AD0003A10BDE8B04000F051B900BFC36B43F0FD
:102AE0000103C363530706D5BEF1000F03D0C36BC8
:102AF00043F00203C363930706D5BEF1000F03D072
:102B0000C36B43F00403C363BCF1000F06D5BEF1F1
:102B1000000F03D0C36B43F00803C363C36B002BE8
:102B200068D092063BD5D5B390F83A20222A36D108
:102B30008268B2F5805F07D10369826A49687BB118
:102B4000C9B222F8011B0FE002694968002A826AB3
:102B500018BF01F07F01531C8362117005E000BFB4
:102B60006FF35F2122F8021B8262C18D4A1EC2856B
:102B70000168120413D1CA68044622F02002CA6018
:102B8000CA6822F48072CA604A6922F001024A616E
:102B9000202180F83A1000F0F1F8216820464A69B7
:102BA000C36B02F0400203F00803D21824D0CA68B5
:102BB00022F49072CA604A6922F001024A6120221E
:102BC00080F83A204A6952061CD54A6922F0400230
:102BD0004A61416BB1B143F2A112C0F60002044652
:102BE00008464A63FEF7F6FB20B1606B416BBDE817
:102BF000B0400847B0BD00BF0446FFF7D1FE00203B
:102C0000E063B0BDBDE8B040FFF7CABE002804BF16
:102C10000120704710B5044690F8390028B900200B
:102C200084F83800204600F061F8242084F8390048
:102C30002068D4E90212C36823F40053C360036917
:102C400023F440531A430261D4E904231143C268B8
:102C5000194341F20C639A431143C1604169A2696F
:102C600021F44071114343F60002C4F20102904284
:102C7000416103D0FEF7DEFE02E000BFFEF7EEFE8C
:102C8000D4E90023192148439900B0FBF1F048F240
:102C90001F5CC5F2EB1CA0FB0C314FF69C7349097D
:102CA000C0F6FF7301FB0300322303EB0010A0FB0F
:102CB0000C03F02000EA531000EB0110C3F34311A2
:102CC000084490601069202120F490401061506900
:102CD00020F02A005061D06840F40050D0600020FD
:102CE000E06384F8391084F83A1010BD70B586B0EE
:102CF00040F60004C4F20104006804F540510026C7
:102D000088420596CDE90366029601D006B070BDF3
:102D100041F21800C4F20200016802AD41F48041A2
:102D20000160016801F4804101910199016841F05D
:102D3000040101600068294600F004000190019838
:102D40004FF400700290022003900320059020466B
:102D5000FEF7C6FB4FF48060CDE902062046294607
:102D60000496FEF7BDFB252000210022FEF748FD5A
:102D70002520FEF733FD06B070BD0000704700004F
:102D80002DE9F041044690F8390020280CD10E4678
:102D900000294FF0010018BF002A01D1BDE8F081E1
:102DA00094F83800012803D10220BDE8F08100BF6B
:102DB000012084F838000020E06321201D4684F8BB
:102DC00039001746FEF79CFCA784E784E18C074690
:102DD00000295FD005F1010806E000BF16F8011BCD
:102DE0004160E18C002956D0E08C0138E0842068F5
:102DF000A1680268B1F5805F4FEA02611CD1002929
:102E00000DD4B8F1000F29D0002D6AD0FEF778FC60
:102E1000C11B2068A94264D801680906F6D531882B
:102E20006FF35F2141602169002914BF013602362A
:102E3000E18C0029D8D12EE00029CFD4B8F1000FC1
:102E40001AD0002D4DD000BFFEF75AFCC11B2068E0
:102E5000A94246D801680906F6D5BFE70168090608
:102E6000DDD4016809065CBF01685FEA0161D6D460
:102E700001680906F2D5D2E701680906AED40168F7
:102E800009065CBF01685FEA0161A7D40168090611
:102E9000F2D5A3E72068016849060FD40DB3691C79
:102EA00019D10168490609D4016849065CBF016867
:102EB0005FEA416102D401684906F2D5202084F816
:102EC00039000020002184F83810BDE8F08100BFEF
:102ED00000684006F2D4FEF713FCC11B2068A9422B
:102EE000F6D9C16821F4D071C160416921F00101B6
:102EF0004161202084F8390084F83A000320002141
:102F000084F83810BDE8F08170470000FEE700004B
:102F1000FEE70000FDF744BD01884288838809BAB6
:102F200052BA02EB11411ABAC38801EB12411ABA24
:102F3000038901EB12411ABA438901EB12411ABA13
:102F4000838901EB12411ABAC38901EB12411ABA03
:102F5000038A408A01EB12411ABA01EB124100BA0E
:102F600001EB1040010C08D080B20844010C1EBFD8
:102F700080B208445FEA104104D1C04300BA000C9B
:102F8000704700BF80B20844B0F5803F28BF0120E1
:102F9000C04300BA000C704710B540F24C14C2F2A6
:102FA000000400BF20464FF40071FDF76BFB0028C2
:102FB00008BF10BD217B0829F4D1617B41B10629EE
:102FC000F0D181B22A29EDD32046FDF743F9E9E794
:102FD000E17D0629E6D181B2204600F031F8E1E733
:102FE000704700007047000070470000FEF78EBB7E
:102FF00041F20000C4F202000168002241F0010128
:1030000001604168CFF6FF021140416001684FF650
:10301000FF72CFF6F66211400160016821F4802151
:103020000160416821F4FE0141604FF41F0181609D
:103030004EF60850CEF200004FF00061016070477C
:103040002DE9F04381B00446D0F81A20D0F81E30A4
:1030500040F22800C2F20000007840F26405C2F29B
:103060000005C5E9013298B140F23002C2F2000217
:1030700004E000BF013802F10A0209D013686F684A
:103080009F42F7D1138957682B82EF60F2E700BFA8
:10309000264656F8060FC5F8120096F82900B288A1
:1030A0001828EA825ED194F82E306FF00C0204F1F9
:1030B000360C02EB93021CF8027040F20008102F4D
:1030C000C2F2000801D0032F13D1208A9B0800BA56
:1030D000C3EB104098F800301438032B288008D137
:1030E0001CF80220CBB220468946194600F094FA1B
:1030F000494640F21C0CC2F2000C9CF80020012A48
:1031000030D1A7F110022B88B2FA82F250099AB29C
:1031100000230B2A88BF0123184201BF87F0030058
:1031200082F00C021043B0FA80F008BF5FEA501042
:1031300013D0D4F81E0040F2BC02C2F20002C2F862
:103140000A003068D4F81A305060B08813601081DB
:103150002068C2F80E00A088508202208CF800007F
:1031600088F80000D5E90120C4F81A0043F62A6067
:10317000C0F6000083880068B3803060288AC4F8F5
:103180001E20A080EA682046226001B0BDE8F0431E
:10319000FFF7C0BE40F2A430C2F20000FFF73ABB16
:1031A000406A0021C185C184FFF7FABB40F2E431D7
:1031B000C2F2000108607047B0B540F2E431C2F2DB
:1031C00000010C680546FCF7BFFF82B22046294685
:1031D0006423BDE8B040FFF7D3BD000040F2D0004B
:1031E000C2F20000FFF7DEBBFEE70000ADF5087D90
:1031F00040F23000C2F200000027C0F80A70FEF76B
:1032000093FA4FF480304FF00208CDE90307CDE97F
:1032100009804FF4E01001260B9002A8CDE9077752
:10322000CDE9057702960696FEF72CFC0F20CDE936
:1032300082084FF48060CDE9850782A80221849737
:10324000FEF71AFB41F21800CDE90477CDE90277C9
:10325000C4F20200016840F6004541F0200101601F
:103260000168C4F2010501F0200182918299016890
:10327000012241F004010160016801F00401829122
:103280008299016841F0080101600068022100F0A4
:103290000800829082982846FEF72CFA40F601003A
:1032A00002900020C1F2210002ACCDE903062846BD
:1032B0002146FEF715F90320059028462146CDE961
:1032C00002860496FEF70CF9062000210022FEF784
:1032D00097FA0620FEF782FA282000210022FEF746
:1032E0008FFA2820FEF77AFA40F24C3405F5105098
:1032F000C2F200044FF4827184E883000A204FF484
:1033000000721023C4E90A702046C4E90377C4E9B7
:103310000572E361C4E90877FEF7B4FD05F53050A6
:1033200040F2B405C2F2000545F81C0F4FF4E1303D
:103330000C21C5E901072846C5E90377C5E905174A
:10334000EF61FFF763FC40F2A436C2F200064FF0D3
:10335000804041F61F4142F2107286E883003046F9
:103360000597CDE90377CDE98277C6E90327B761F1
:10337000FFF7F0F84FF48050029002A93046FFF7B3
:103380007DF982A93046FFF7C3F82846FFF70EFF04
:103390002046FDF771FC3046FFF760F993A0FFF778
:1033A0000BFF40F20009C2F2000900BF09F1010061
:1033B00089F80470FDF70CF80A20FEF763F801376E
:1033C000B7F5807FF2D100208DF8080240F230007E
:1033D00040F22808C2F20000C2F200080E304FF09E
:1033E000000A009003E000BF002089F8000040F2CE
:1033F000B400C2F200000078012847D1D8F80000DC
:10340000CDF804A0012835DBDDF800904FF0000B6B
:1034100004E000BF834509F10A092BDA59460BF194
:10342000010B8345F6DA01EB810040F23001C2F274
:10343000000101EB40052E1D4F46DA463C1F204699
:1034400029463A463346FDF729F80A20FEF71AF8CE
:103450002846214632463B46FDF720F80A20FEF773
:1034600011F8D8F800000AF1010A824507F10A07AD
:10347000E4DBCFE740F2B40040F20009DDF804A03D
:10348000C2F200000021C2F2000901709DF808029A
:1034900038B100208DF8080202A84FF40071FDF742
:1034A000F1F8FFF779FD99F80000BAF57A72A0F10A
:1034B0000201B1FA81F14FEA511118BF0122114006
:1034C00001288A4428D1D8F800000128FFF68CAFE3
:1034D000002403E001348442BFF686AF0128F9DB03
:1034E00040F2300604EB8401C2F2000606EB41050F
:1034F000002704E00137874206F10A06EADABC42F7
:10350000F8D0321D30462946FCF798FF0A20FDF717
:10351000B9FFD8F80000EDE7022808BFBAF57A7FB6
:103520007FF465AFD8F800004FF0000A012859DB9E
:10353000DDF800B004E000BF82450BF10A0B47DA6A
:1035400051460AF1010A8245F6DA40F2300201EBF7
:103550008101C2F2000202EB410540F2B402C2F264
:103560000002D17A527D2E1D5F46D14621E000BF78
:103570003C1F204629463A463346FCF78FFF0A2077
:10358000FDF780FF2846214632463B46FCF786FF82
:103590000A20FDF777FF40F2B400C2F20000C17AC2
:1035A000427DD8F8000009F10109814507F10A07B9
:1035B000C2DAEB789A4203D117F8014CA142F2D05B
:1035C0009942D5D117F8013C9A42D1D1EBE700BF1F
:1035D00040F200090320C2F200094FF0000A89F806
:1035E000000004E7032089F8000000E74B686F69DA
:1035F0002074616F207468616E6820636F6E670D60
:103600000A0A54687563206869656E20717565746F
:103610002E2E2E2E0D0A0A002DE9F04F81B0102A11
:1036200058D0032A40F08E81018A90F82E2009BAE2
:10363000090CA1EB9201A1F1140293B240F27C01BA
:10364000C2F200010D2B4A80C0F07C8140F2E832CA
:10365000C2F20002002700F136031780CE19367936
:103660001F447E7217884D887E1CB7B2093DBD424B
:103670001680F3DC0021044624F8321F0546A4F12D
:10368000240024F81A1CFFF747FC34F8221C24F805
:103690001A0C0BBA6FF00B0000EB134290B2023819
:1036A000A4F11801C0F034811F0CA7F10E0301260C
:1036B00006EB530616F0030600F00E81698B012E0F
:1036C00009BA00EB114040F0CD8005F11C011A460B
:1036D00002E100BF018A90F82E2009BA090CA1EB83
:1036E0009201A1F1140291B240F27C0EC2F2000EDE
:1036F0000D29AEF802206DD340F2E838C2F200087E
:1037000000230D29A8F8003064D0A1F10D040E3972
:1037100000F13609032904F0030C03D20021002430
:1037200035E000BF24F00301AEF1040500F13F06CF
:1037300000240EF1040A00BF16F8042F44F003071A
:103740002A7244F00102A8F8002092B202EB0903A9
:103750005B7B04390AF8023044F00202A8F800202A
:1037600092B202EB090393F80DB0A8F80070BFB253
:1037700007EB09035B7B04F1040405F104050AF877
:1037800002B00AF80730A8F80040D5D1A1B2BCF1C8
:10379000000F1FD001EB0902527B71440A71611CBA
:1037A000BCF1010FA8F8001014D089B201EB090296
:1037B000527B71440A71A11CBCF1020FA8F80010E1
:1037C00008D089B201EB0902527B71440A71E11CF5
:1037D000A8F800109EF80010062901D2072203E085
:1037E0000A294FF0000202D880F844204A1C002128
:1037F000044624F8321F0546A4F124008EF8002068
:1038000024F81A1CFFF788FB34F8221C24F81A0C41
:103810000BBA6FF00B0000EB134290B20238A4F128
:10382000180175D31F0CA7F10E03012606EB5306F2
:1038300016F003062AD0698B012E09BA00EB11405D
:1038400004D105F11C011A4620E000BFA98B022E0D
:1038500009BA00EB114011D105F11E01A7F11002C8
:1038600014E000BFA98B022E09BA00EB11402BD146
:1038700005F11E01A7F110022EE000BFE98BA7F1B0
:10388000120209BA00EB114005F120019BB2062B90
:103890003ED300BF31F8083B083A31F8067C1BBA2A
:1038A00000EB13403BBA31F8047C00EB13403BBA09
:1038B00000EB134031F8023C97B21BBA012F00EB2A
:1038C0001340E7D824E000BFE98BA7F1120209BA40
:1038D00000EB114005F120019BB2062B18D300BF6D
:1038E00031F8083B083A31F8067C1BBA00EB13406C
:1038F0003BBA31F8047C00EB13403BBA00EB1340B9
:1039000031F8023C97B21BBA012F00EB1340E7D805
:1039100012041CBF097800EB0120010C0ED080B20C
:103920000844010C1EBF80B208445FEA104105D074
:1039300080B20844B0F5803F28BF0120C04300BAE0
:10394000000C208001B0BDE8F08F00000FB4084BE0
:1039500010B504A902AA039800F01CF8044602A9B5
:10396000002000F048FA204610BC5DF814FB00006F
:10397000F73D000802E008C8121F08C1002AFAD16A
:1039800070477047002001E001C1121F002AFBD1DF
:10399000704700002DE9FF4F8DB00F460546002609
:1039A00006E025280BD0DDE90F1290476D1C761C30
:1039B00028780028F5D111B03046BDE8F08F0024FA
:1039C000A246A1460122EC4900E0044315F8013F5C
:1039D000203B02FA03F00842F7D128782A2810D0B9
:1039E0006FF02F022878A0F13001092914D80AEBD2
:1039F0008A0102EB410144F0020400EB010A6D1C54
:103A0000F0E701CF5FEA000A03D544F40054CAF19D
:103A1000000A44F002046D1C28782E2817D115F8EE
:103A2000010F44F004042A280ED06FF02F022878EA
:103A3000A0F1300109290AD809EB890102EB410103
:103A400000EB01096D1CF2E757F8049B6D1C287808
:103A50006C280FD006DC4C2817D068280DD06A28B7
:103A600014D104E0742810D07A280FD10DE044F46A
:103A700000140AE044F4801401E044F4401469782E
:103A8000814202D104F580146D1C6D1C2A786E2AC7
:103A90001FD00CDC632A31D004DC002A8BD0582ADA
:103AA00011D1A3E0642A68D0692A0CD165E0732A99
:103AB0002ED004DC6F2A73D0702A04D19BE0752AC3
:103AC0006FD0782A6ED01046DDE90F129047761C31
:103AD00050E1C4F30250022806D0032809D004287C
:103AE00001CF09D0066045E101CFF117C0E90061BF
:103AF00040E101CF06803DE106703BE117F8040B81
:103B00008DF8000000208DF80100EB46012003E055
:103B100057F804BB4FF0FF3061074FF0000102D4AB
:103B20000DE008F10101884649450FDA8045F8DBD0
:103B30001BF808100029F4D108E008F101018846BB
:103B40008142FADB1BF808100029F6D1DDE90F23CA
:103B5000AAEB08008146214600F036F9304400EB1C
:103B6000080604E0DDE90F121BF8010B9047B8F1DD
:103B70000108F7D221464846F7E00A21C4F3025370
:103B80004FF0000B0891022B04D001CFC117032B7B
:103B900009D00AE0FF1D27F00707F7E8020108E057
:103BA00032E01FE020E000B2C117042B01D140B287
:103BB000C117031E71F1000307DA4FF0000CD0EBC0
:103BC0000C006CEB01012D2302E0230504D52B230F
:103BD0008DF82430012303E0E30701D02023F7E729
:103BE000984658E00A2110E010210EE010204FF016
:103BF000000B08900CE010214FF0000B44F004047F
:103C00004FF00809089103E008214FF0000B0891DC
:103C1000C4F30253022B04D001CF0021032B06D0A2
:103C200006E0FF1D27F00707F7E8020103E080B276
:103C3000042B00D1C0B24FF0000823072BD5702A07
:103C400007D0DDF820C08CF0100C5CEA0B0C05D01E
:103C50000EE040238DF82430012308E050EA0103F0
:103C600006D030238DF824308DF825200223984685
:103C7000DDF820C08CF0080C5CEA0B0C0BD150EA8C
:103C8000010301D1630706D530238DF824304FF0AE
:103C90000108A9F10109582A04D038A20B9208AAF8
:103CA0000A920BE03AA2F9E75B46089AFCF753FA4E
:103CB0000B9B9B5C0A9A521E0A92137050EA0102F7
:103CC000F2D10A98ADEB000000F1200B600702D59D
:103CD00024F4803401E04FF00109D94502DDA9EB5D
:103CE0000B0000E0002000EB0B0141440890AAEB20
:103CF000010AE00306D4DDE90F232146504600F017
:103D000063F806444FF0000908E009A911F809001A
:103D1000DDE90F12904709F10109761CC145F4DB7A
:103D2000E0030CD5DDE90F232146504600F04CF8A6
:103D3000064404E0DDE90F1230209047761C089914
:103D4000481E08900029F5DC08E00A980A990078D6
:103D5000491C0A91DDE90F129047761CBBF1000166
:103D6000ABF1010BF1DC21465046DDE90F2300F0F9
:103D700019F806446D1C1BE6092801003031323366
:103D80003435363738396162636465660000000097
:103D90003031323334353637383941424344454681
:103DA000000000002DE9F041044600251E4617469C
:103DB000880404D405E039462020B0476D1C641EF9
:103DC000F9D52846BDE8F0812DE9F04104460025EB
:103DD0001E469046C80301D5302700E020278804FE
:103DE00004D505E041463846B0476D1C641EF9D540
:103DF0002846BDE8F0810A68531C0B6010707047BC
:103E00000102000000000000000001020304060798
:103E1000080900000000010203040203040506076C
:103E200008090A0B0C0D0E0F10100000200719983E
:103E30004B686F692074616F206D6F64756C6520CD
:103E4000454E4332384A36302074686174206261CE
:103E50006920210D0A005468696574206269202573
:103E6000692069702025692E25692E25692E25690E
:103E7000203D20253032583A253032583A2530320C
:103E8000583A253032583A253032583A253032588F
:103E90000D0A0000B83E00080000002020000000CD
:103EA00074390008D83E000820000020D007000028
:103EB000843900080000000001C0A80000000000D4
:103EC00001000000100000000024F40001000000C8
:083ED000C0A801C501000000BB
:04000005080000ED02
:00000001FF
