:020000040800F2
:10000000F007002001010008413000086D2F0008B2
:10001000712F0008F5050008ED3100080000000010
:10002000000000000000000000000000493000084F
:10003000F905000800000000453000084D300008B8
:100040001B0100081B0100081B0100081B01000820
:100050001B0100081B010008D91300081B01000840
:100060001B0100081B0100081B0100081B01000800
:100070001B0100081B0100081B0100081B010008F0
:100080001B0100081B0100081B0100081B010008E0
:100090001B0100081B0100081B0100081B010008D0
:1000A0001B0100081B0100081B0100081B010008C0
:1000B000993100081B0100081B0100081B01000802
:1000C0001B0100081B0100081B0100081B010008A0
:1000D0001B010008E13100081B0100081B0100089A
:1000E000E11300081B0100081B010008DFF80CD019
:1000F00000F050F800480047F1310008F0070020F8
:100100000648804706480047FEE7FEE7FEE7FEE7B1
:10011000FEE7FEE7FEE7FEE7FEE7FEE751300008F8
:10012000ED000008421C10F8011B0029FBD1801AC9
:1001300070472DE9F05F0546002092469B468846B1
:100140000646814640241BE0284641464746224653
:1001500000F047F853465A46C01A914110D3114651
:100160001846224600F02EF82D1A67EB01084F467C
:1001700022460120002100F025F817EB00094E412E
:10018000201EA4F10104DFDC484631462A464346DE
:10019000BDE8F09F1CB5094800900948019005464C
:1001A000009C06E0E06840F0010394E807009847EF
:1001B0001034AC42F6D3FFF79DFF0000083D000865
:1001C000283D0008202A04DB203A00FA02F1002032
:1001D00070479140C2F1200320FA03F31943904085
:1001E0007047202A04DB203A21FA02F000217047F0
:1001F00021FA02F3D040C2F120029140084319468F
:100200007047000080B58EB0024652F8061F40F2DB
:10021000100C9388C2F2000C0191ADF8083092F8EE
:1002200020109CF80030D2F816E09942CDF800E09A
:1002300013D190F827109CF8013099420DD190F815
:1002400028109CF80230994207D190F829109CF8A8
:100250000330994201D1017D11B10EB080BD00BFC4
:10026000407D02282DD00128F7D190881168ADF883
:100270001000ADF8300043F6DA40C0F600000391FC
:100280000B9101688088CDF81210ADF81600ADF81A
:10029000260040F20860C0F2001006900820CDF859
:1002A0002210DCF80010C0F2064007904FF40070F6
:1002B0000A91ADF8200003A82A21CDF832E002F01F
:1002C00059FE684601A900F0DBF80EB080BD0000C1
:1002D00080B58CB00021ADF8281009914FF0FF31A6
:1002E0000191ADF80810006843F6DA41C0F600014C
:1002F000CDF82A0088880A68ADF80E00ADF81E0017
:1003000040F2086040F21001C0F20010C2F2000199
:10031000049008200968C0F2064005904FF48070F0
:100320000891ADF8180001A82A21CDF80A20CDF8CF
:100330001A2002F01FFE0CB080BD000080B58CB00A
:1003400000684FF0FF32CDF82A001868ADF8082099
:10035000CDF80A00CDF81A0008680192089040F222
:100360000860C0F2001004900820C0F20640099214
:10037000ADF828209A8805904FF48070ADF81800E9
:1003800001A82A21ADF80E20ADF81E2002F0F2FDE2
:100390000CB080BD40F2280CC2F2000C02789CF830
:1003A00008309A4211D143789CF809108B420CD145
:1003B00081789CF80A30994207D1C1789CF80B30BB
:1003C000994202BF012040B270479CF812108A4245
:1003D00011D141789CF8133099420CD181789CF866
:1003E0001430994207D1C1789CF81530994202BF68
:1003F000022040B270479CF81C108A4211D141780B
:100400009CF81D3099420CD181789CF81E3099429D
:1004100007D1C1789CF81F30994202BF032040B237
:1004200070479CF826108A4211D141789CF82730F9
:1004300099420CD181789CF82830994207D1C17833
:100440009CF82930994202BF042040B270479CF8C2
:1004500030108A4211D141789CF8312091420CD160
:1004600081789CF83220914207D1C0789CF83310F3
:10047000884202BF052040B27047FF2040B270475B
:100480002DE9F04F89B00C460546FFF783FF013098
:1004900002D009B0BDE8F08F40F22800C2F200009F
:1004A000077840F20C00C2F2000002682B786878EE
:1004B00095F802A095F803E02678617894F802B0E8
:1004C00094F8039094F804C094F80580F7B140F2D2
:1004D000F804C2F200048DE80144CDE9036125A1CE
:1004E0002046CDF82080CDE905B9CDF81CC003F039
:1004F00085F9204602F062FE40F2B100C2F200002F
:100500000121017009B0BDE8F08F00BFCDE905B948
:1005100040F2F809C2F200098DE80144CDE9036117
:1005200024A14846CDF82080CDF81CC003F066F920
:10053000484602F043FE40F20C02C2F2000210688C
:1005400040F22803C2F2000301305978106001EB39
:1005500081002A6803EB400082602268C260A288A2
:100560000282481CC1B20A3918BF0146597009B04D
:10057000BDE8F08F5468696574206269206C612061
:1005800025692069702025692E25692E25692E256B
:1005900069203D20253032583A253032583A2530EE
:1005A00032583A253032583A253032583A253032CE
:1005B000580D0A0054686965742062692025692015
:1005C00069702025692E25692E25692E2569203D13
:1005D00020253032583A253032583A253032583AB0
:1005E000253032583A253032583A253032580D0AE3
:1005F00000000000FEE700007047000070B582B008
:1006000040F22005C2F20005297800F060068E4213
:100610003FD040F60044C4F20104204602210022EB
:1006200001F07AF8BF2168688DF8041001A9012251
:100630000A2301F0B9FC032168688DF805100DF15B
:10064000050101220A2301F0AFFC2046022101220C
:1006500001F062F82046022100222E70760901F096
:100660005BF89F2168688DF806100DF106010122E4
:100670000A2301F099FC68680DF1070101220A23A1
:100680008DF8076001F090FC20460221012201F064
:1006900043F802B070BD00002DE9F04F85B006466A
:1006A00040F6004939200D46C4F20109FFF7A6FFC4
:1006B000484602210022002701F02EF840F22008CF
:1006C000C2F200081921D8F804008DF813100DF1BA
:1006D000130101220A234FF00A0A01F065FCD8F841
:1006E00004004FF0FF0B0DF113010DF11202012375
:1006F0008DF813B0CDF800A001F07AFD9DF81240FE
:1007000048460221012201F007F8002C00F04E813A
:10071000B8F8021000200022039200F0F5F94846D4
:100720000221002200F0F8FFD8F804003A270DF16A
:10073000130101220A238DF8137001F035FCD8F85B
:1007400004000DF113010DF1120201238DF813B015
:10075000CDF800A001F04CFD9DF812404846022162
:10076000012200F0D9FF484602210022A8F80240E9
:1007700000F0D2FFD8F804000DF1130101220A2382
:100780008DF8137001F010FCD8F804000DF113017E
:100790000DF1120201238DF813B0CDF800A001F085
:1007A00027FD9DF8124048460221012200F0B4FFC7
:1007B000B8F80200022140EA0420A8F802004846E6
:1007C000002200F0A9FFD8F804000DF11301012266
:1007D0000A238DF8137001F0E7FBD8F804000DF13F
:1007E00013010DF1120201238DF813B0CDF800A012
:1007F00001F0FEFC9DF812A04846022101220A24C5
:1008000000F08AFF48460221002200F085FFD8F858
:1008100004000DF1130101220A238DF8137001F079
:10082000C3FBD8F804000DF113010DF112020123EE
:100830008DF813B000940A2701F0DAFC9DF81240FD
:1008400048460221012200F067FF4AEA04200438EA
:1008500080B2A84238BF05464846022100223A2409
:1008600000F05AFFD8F804000DF1130101220A2309
:100870008DF8134001F098FBD8F804000DF1130136
:100880000DF1120201238DF813B0009701F0B0FCB6
:10089000AA469DF9125048460221012200F03CFF71
:1008A00048460221002200F037FFD8F804000DF17D
:1008B000130101220A238DF8134001F075FBD8F8CB
:1008C00004000DF113010DF1120201238DF813B094
:1008D000009701F08DFC48460221012200F01CFF28
:1008E000B5F1FF3F37DC48460221002200F014FF3B
:1008F000D8F804000DF1130101220A238DF81340EA
:100900004FF00A0B01F050FBBAF1000FCDF808A030
:1009100018D0FF240DF113070DF11205D8F80400CB
:1009200039462A460123AAF1010A8DF81340CDF871
:1009300000B001F05DFC9DF812005FEA0A4106F884
:10094000010BEBD10020307048460221012200F05B
:10095000E3FE02980390B8F802100C20B1F5406F46
:1009600088BF40F6FF3100F0CFF848460221002250
:1009700000F0D2FE9E21D8F804008DF813100DF17E
:10098000130101220A2301F00FFB4021D8F80400D3
:100990008DF813100DF1130101220A2301F004FB5D
:1009A00048460221012200F0B7FE039F384605B0F9
:1009B000BDE8F08F2DE9F04F85B040F6004A40F2D7
:1009C00020070D46C4F2010AC2F200074FF00A08E0
:1009D0004FF0FF090DF113060DF11204019000BF55
:1009E0001F20FFF70BFE50460221002200F094FE6C
:1009F00078681F218DF811100DF1110101220A23D1
:100A000001F0D2FA78683146224601238DF813901E
:100A1000CDF8008001F0ECFB9DF812B050460221A9
:100A2000012200F079FE5FEA0B70D9D402204FF466
:100A3000406100F069F805F5406081B2062000F0E1
:100A400063F8504602210022002600F065FE786817
:100A50007A240DF10B0101220A238DF80B4001F0DD
:100A6000A3FA786803A901220A238DF80C6001F02B
:100A70009BFA50460221012200F04EFE5046022110
:100A8000002200F049FE78680DF10D0101220A23D1
:100A90008DF80D4001F088FA8DB101980DF10E042A
:100AA000461E00BF16F8011F78688DF80E1021460B
:100AB00001220A23013D01F077FA2804F2D15046C1
:100AC0000221012200F028FE50460221002200F0FF
:100AD00023FE9F2178688DF80F100DF10F01012280
:100AE0000A2301F061FA082178688DF8101004A932
:100AF00001220A2301F058FA50460221012200F097
:100B00000BFE05B0BDE8F08F2DE9F04182B00D4637
:100B10000646FFF773FD40F60044C4F20104204688
:100B2000022100224FF0020800F0F6FD40F22007FB
:100B30003146C2F2000768F35F1178688DF804103F
:100B400001A901220A2301F02FFA78680DF10501AD
:100B500001220A238DF8055001F026FA20460221D1
:100B6000012200F0D9FD0136F0B22D0AFFF746FD53
:100B700020460221002200F0CFFD786868F35F165E
:100B80000DF1060101220A238DF8066001F00CFA2E
:100B900078680DF1070101220A238DF8075001F052
:100BA00003FA20460221012200F0B6FD02B0BDE8A2
:100BB000F08100002DE9F04F83B0064640F6004476
:100BC000D4208846C4F20104FFF718FD2046022114
:100BD000002200F0A1FD40F22007C2F200075421DC
:100BE00078688DF805100DF1050101220A230A2508
:100BF00001F0DAF978680DF1060101220A238DF877
:100C0000066001F0D1F920460221012200F084FDA6
:100C1000D6204146FFF778FF4FF0FF080DF1080A94
:100C20000DF10B0B0DF10A06EA20FFF7E7FC204659
:100C30000221002200F070FD78680DF10701012209
:100C40000A238DF8075001F0AFF978680DF109011A
:100C5000524601238DF80980009501F0C9FA7868A1
:100C60005946324601238DF80B80009501F0C0FAF9
:100C70009DF80A9020460221012200F04DFD5FEA16
:100C8000C970D1D103B0BDE8F08F00002DE9F04F5D
:100C900083B040F6004940F22008C4F20109C2F2D4
:100CA0000008C8F80400484602210022002400F091
:100CB00033FDD8F804000DF10B054FF0FF0A29466B
:100CC00001220A238DF80BA04FF00A0B01F06CF9FA
:100CD000D8F804000DF10B0101220A238DF80B4016
:100CE00001F062F948460221012200F015FD0220C0
:100CF00000F0D2FB1D240DF10A0600BF4846022178
:100D0000002200F009FDD8F80400294601220A2338
:100D10008DF80B4001F048F9D8F804002946324616
:100D200001238DF80BA0CDF800B001F061FA9DF819
:100D30000A7048460221012200F0EEFC002FDDD0AF
:100D400000204FF0000AFFF759FC4846022100221C
:100D500000F0E2FCD8F804000DF10B0101220A2397
:100D60008DF80BA00A2601F01FF9D8F80400FF2522
:100D70000DF10B010DF10A0201238DF80B500096C5
:100D800001F036FA9DF80A4048460221012200F09F
:100D9000C3FCFA2C40F0108308200021A8F802A020
:100DA000FFF7B2FE0A2040F6FF31FFF7ADFE042048
:100DB0004FF44061FFF7A8FE062041F2FF11FFF754
:100DC000A3FE0C200021FFF79FFE0E200021FFF75D
:100DD0009BFEC020FFF712FC48460221002200F0D3
:100DE0009BFCD8F8040040270DF10B0101220A23D7
:100DF0008DF80B7001F0D8F80D21D8F804008DF8AB
:100E00000B100DF10B0101220A2301F0CDF8484629
:100E10000221012200F080FCC120FFF7EFFB4846D1
:100E20000221002200F078FCD8F804004FF0410BBA
:100E30000DF10B0101220A238DF80BB001F0B4F87B
:100E4000D8F804000DF10B0101220A238DF80BA044
:100E500001F0AAF848460221012200F05DFC484654
:100E60000221002200F058FC8221D8F804008DF8FD
:100E70000B100DF10B0101220A2301F095F832212C
:100E8000D8F804008DF80B100DF10B0101220A2394
:100E900001F08AF848460221012200F03DFCC620FC
:100EA00040F61241FFF730FEC420FFF7A7FB48468B
:100EB0000221002200F030FCD8F8040044240DF197
:100EC0000B0101220A238DF80B4001F06DF812216D
:100ED000D8F804008DF80B100DF10B0101220A2344
:100EE00001F062F848460221012200F015FCCA20F8
:100EF00040F2DC51FFF708FEE420FFF77FFB484695
:100F00000221002200F008FCD8F804000DF10B01CA
:100F100001220A238DF80B4001F046F8D8F80400AE
:100F20000DF10B0101220A238DF80BA001F03CF812
:100F300048460221012200F0EFFBE520FFF75EFBAF
:100F400048460221002200F0E7FB4521D8F80400C2
:100F50008DF80B100DF10B0101220A2301F024F88A
:100F6000D8F804000DF10B0101220A238DF80BA023
:100F700001F01AF848460221012200F0CDFBE220E0
:100F8000FFF73CFB48460221002200F0C5FB42214E
:100F9000D8F804008DF80B100DF10B0101220A2383
:100FA00001F002F82021D8F804008DF80B100DF1A3
:100FB0000B0101220A2300F0F7FF4846022101221B
:100FC00000F0AAFBE320FFF719FB484602210022AC
:100FD00000F0A2FB4321D8F804008DF80B100DF1AE
:100FE0000B0101220A2300F0DFFF0721D8F80400DB
:100FF0008DF80B100DF10B0101220A2300F0D4FF34
:1010000048460221012200F087FBE020FFF7F6FAB4
:1010100048460221002200F07FFBD8F804000DF1C1
:101020000B0101220A238DF80B7000F0BDFF19217E
:10103000D8F804008DF80B100DF10B0101220A23E2
:1010400000F0B2FF48460221012200F065FBE120DA
:10105000FFF7D4FA48460221002200F05DFBD8F8E1
:1010600004000DF10B0101220A238DF80BB000F0F2
:101070009BFF9821D8F804008DF80B100DF10B019F
:1010800001220A2300F090FF48460221012200F0CD
:1010900043FBE420FFF7B2FA48460221002200F0A9
:1010A0003BFBD8F8040004240DF10B0101220A23B4
:1010B0008DF80B4000F078FFD8F804000DF10B011B
:1010C0000DF10A0201238DF80B50009601F090F803
:1010D000D8F804000DF10B010DF10A0201238DF87F
:1010E0000B50009601F084F848460221012200F0DE
:1010F00013FBE520FFF782FA48460221002200F0A8
:101100000BFB0521D8F804008DF80B100DF10B0135
:1011100001220A2300F048FFD8F804000DF10B016A
:101120000DF10A0201238DF80B50009601F060F8D2
:10113000D8F804000DF10B010DF10A0201238DF81E
:101140000B50009601F054F848460221012200F0AD
:10115000E3FAE220FFF752FA48460221002200F0AB
:10116000DBFAD8F8040002270DF10B0101220A2353
:101170008DF80B7000F018FFD8F804000DF10B018A
:101180000DF10A0201238DF80B50009601F030F8A2
:10119000D8F804000DF10B010DF10A0201238DF8BE
:1011A0000B50009601F024F848460221012200F07D
:1011B000B3FAE320FFF722FA48460221002200F0AA
:1011C000ABFA0321D8F804008DF80B100DF10B01D8
:1011D00001220A2300F0E8FED8F804000DF10B010B
:1011E0000DF10A0201238DF80B50009601F000F872
:1011F000D8F804000DF10B010DF10A0201238DF85E
:101200000B50009600F0F4FF48460221012200F046
:1012100083FAE020FFF7F2F948460221002200F0AD
:101220007BFAD8F804000DF10B0101220A238DF896
:101230000BA000F0B9FED8F804000DF10B010DF180
:101240000A0201238DF80B50009600F0D1FFD8F868
:1012500004000DF10B010DF10A0201238DF80B5072
:10126000009600F0C5FF48460221012200F054FA22
:10127000E120FFF7C3F948460221002200F04CFAB2
:10128000D8F8040001218DF80B100DF10B0101229B
:101290000A2300F089FED8F804000DF10B010DF1CE
:1012A0000A0201238DF80B50009600F0A1FFD8F838
:1012B00004000DF10B010DF10A0201238DF80B5012
:1012C000009600F095FF48460221012200F024FA22
:1012D00010204FF48071FFF76DFC142040F276412E
:1012E000FFF768FC1F20FFF789F94846022100221A
:1012F00000F012FA9B21D8F804008DF80B100DF1C4
:101300000B0101220A2300F04FFED8F80400C0218F
:101310008DF80B100DF10B0101220A2300F044FEA1
:1013200048460221012200F0F7F97520FFF766F91F
:1013300048460221002200F0EFF95521D8F80400B8
:101340008DF80B100DF10B0101220A2300F02CFE89
:10135000D8F804000DF10B0101220A238DF80B705F
:1013600000F022FE48460221012200F0D5F90120BA
:1013700000F092F848460221002200F0CDF99F21AA
:10138000D8F804008DF80B100DF10B0101220A238F
:1013900000F00AFED8F804000DF10B0101220A2327
:1013A0008DF80B4000F000FE48460221012200F0BB
:1013B000B3F903B0BDE8F08F43F6E040C0F600009B
:1013C00001F0FCFE48464FF48061002200F0A4F9D1
:1013D00003B0BDE8F08F0000012000F07FB80000EE
:1013E0004FF4006000F07AB890F82110022923D160
:1013F000026840F2040C1168C4F2020C21F00E01E4
:10140000116013682F21C4F202018A4223F0010304
:10141000136015DD3023C4F202039A421CD044232A
:10142000C4F202039A421BD05823C4F202039A4228
:101430001CD14FF4803321E00421816301207047E7
:101440000823C4F202039A420ED01C23C4F2020302
:101450009A420BD1102311E04FF480730EE000BFCD
:101460004FF480530AE000BF012307E00CF168014C
:101470004FF080738A4208BF4FF48013CCF80030DD
:10148000416B4FF480720029028404BF0020704732
:1014900080B58847002080BDB0B5044600F042F911
:1014A000054640F20000C2F200000078611C18BF3F
:1014B000044400BF00F036F9401BA042FAD3B0BD8F
:1014C000012818BF704740F2B000C2F20000416826
:1014D000002904BF012101707047000040F214414F
:1014E000C4F201010A68024214BF08607047FFF7A6
:1014F000E7BF00002DE9F04F82B00E68002E00F02B
:10150000FF8040F20C4C40F2004E41F20042C4F227
:10151000010CC4F2010EC4F20102042700240123CD
:101520004FF0000A4FF00009904208BF03270097D0
:1015300049E000BF41F20002C4F20102009F904264
:1015400008BF022704F00C030F229A402BEA020284
:1015500007FA03F34FEA9A051A4346F825204E6826
:10156000F203DEF8002054BF22EA080242EA080231
:10157000CEF80020DEF80420B30354BF22EA0802AC
:1015800042EA0802CEF80420F302DEF8082054BF35
:1015900022EA080242EA0802B302CEF80820DCF888
:1015A00000204FF0010354BF22EA080242EA080279
:1015B000CCF800200E680AF1010A36FA0AF204F1AA
:1015C000040400F09D8003FA0AFB16EA0B08F1D030
:1015D0004E684FF6FF72C1F21002964212DC122ED4
:1015E00056D8DFE806F0350B4D495555555555553C
:1015F0005555555555555545510000BFD1F80C90DE
:1016000046E000BF4FF6FF72C1F2210296420FDCA6
:101610000022C1F2110296421AD00022C1F2120237
:10162000964215D00022C1F22102964210D02FE03E
:101630000022C1F2220296420AD00022C1F23102F7
:10164000964205D00022C1F23202964220D100BF5C
:101650008A684AB1012A14BFC0F814B0C0F810B0AB
:101660004FF0080914E000BF4FF0040910E000BF7C
:10167000CA6802F104090BE04FF0000908E000BF5E
:10168000CA6802F1080903E0CA6802F10C0900BF48
:1016900002462646B8F5807F24BF0432203E1768F4
:1016A0000F25B54027EA050509FA06F6354315600A
:1016B000CA79D2067FF57EAF41F21803C4F2020365
:1016C0001A68AEF57E7642F001021A601A6802F0DE
:1016D00001020192019A2AF0030256F802B040F684
:1016E0000002C4F20102904208D040F60042C4F267
:1016F000010290427FF41EAF012723E7002721E774
:1017000002B0BDE8F08F0000C26814230A4208BF8F
:101710001023C15070470000002A08BF090401616E
:101720007047000040F2E830C2F2000000687047E5
:1017300040F2000040F2E831C2F20000C2F20001C3
:1017400000780A68104408607047000080B542F2D3
:101750000000C4F20200016841F0100101600320A2
:1017600000F08CF8002000F005F800F027F80020C9
:1017700080BD000070B540F20006C2F2000640F2E3
:1017800008013278C2F200014FF47A730968B3FBA2
:10179000F2F20446B1FBF2F1084600F0B1FE0F2C64
:1017A0004FF0010508D838B94FF0FF30214600222C
:1017B000002500F037F87460284670BD82B041F211
:1017C0001800C4F202000168022241F00101016028
:1017D000016801F0010101910199416841F08051D6
:1017E0004160406800F08050009000980420C4F2EE
:1017F0000100016862F31A61016002B070470000E5
:10180000002848BF704700F01F01012202FA01F1D1
:101810001C2202EAD0004EF20012CEF200028150E9
:101820007047000010B54EF60C5CCEF2000CDCF8F0
:101830000030C3F3022E8EF00704042C28BF0424CA
:10184000BEF103034FF0FF3E0EFA04F438BF00234D
:10185000A14399400EFA03F39A43114300F00F029B
:1018600000F160430901043A03F56443624400282F
:1018700048BF02F10C03197010BD00004EF60C5168
:10188000CEF200010A684FF6FF031A4060F30A2205
:1018900042F0806040F0FD7008607047002804BF8F
:1018A000012070472DE9F04381B042F20008C4F2F4
:1018B00002080446D8F800000D4600F007008142F7
:1018C0000CD9D8F8000020F007002843C8F8000021
:1018D000D8F8000000F00700A8426CD1206841F25F
:1018E00004098107C4F2020917D5410705D5D9F8C3
:1018F000001041F4E061C9F80010010705D5D9F8DE
:10190000001041F46051C9F80010D9F80010A26825
:1019100021F0F0011143C9F80010C00742D1D8F8F6
:10192000000000F0070085420CD2D8F8000020F03B
:1019300007002843C8F80000D8F8000000F00700AE
:10194000A84238D12068410707D5D9F80010E268CD
:1019500021F4E0611143C9F80010000708D5D9F857
:101960000000216920F4605040EAC100C9F800007D
:10197000D9F8002002F00C00082841F20020C0F243
:101980007A004DD143F6CA43C2F38341C0F6000347
:10199000595CD20338D440F60010C0F23D004843F1
:1019A0003EE000BF606859F8041C022808D00128F6
:1019B00026D1890306D4012001B0BDE8F08300BF21
:1019C0008901F8D5D9F8001021F003010843C9F8BE
:1019D0000000FFF7A7FE064641F28837D9F800005D
:1019E000616800F00C00B0EB810F98D0FFF79AFE11
:1019F000801BB842F2D9032001B0BDE8F08300BFDC
:101A00008907D8D5DEE700BFD9F8002043F6B043F8
:101A1000C2F34042C0F600039A5C4843B0FBF2F0C8
:101A2000D9F8001043F6B242C1F30311C0F6000228
:101A3000515C40F2080220FA01F140F20400C2F2C7
:101A400000000068C2F200021160FFF793FE002060
:101A500001B0BDE8F083000040F2080041F204014B
:101A6000C2F20000C4F202010068096843F6C242F3
:101A7000C1F30221C0F60002515CC840704700006B
:101A800040F2080041F20401C2F20000C4F2020177
:101A90000068096843F6C242C1F3C221C0F60002E1
:101AA000515CC84070470000002804BF0120704707
:101AB0002DE9F04182B00446007841F20006C007EB
:101AC000C4F202060CD0706800F00C00042840F04C
:101AD00081803068800303D56068002800F046816B
:101AE000207880071BD5706810F00C0F09D0706843
:101AF00000F00C00082840F087807068C00300F1F7
:101B000083803068800703D52069012840F02E814A
:101B10003068616920F0F80040EAC1003060207848
:101B2000000713D4207840072CD4E569002D00F07D
:101B30001881706800F00C00082840F0A780012D83
:101B400040F00481012002B0BDE8F081A0690028C6
:101B500000F084800020C4F242200121C0F88014EB
:101B6000FFF7E0FD054600BF706A800700F1B28014
:101B7000FFF7D8FD401B0228F6D9032002B0BDE8CC
:101B8000F08100BFF0695FEAC00808D4F06940F056
:101B90008050F061F06900F080500090009847F2AA
:101BA0000007C4F200073868C00549D4386840F41B
:101BB00080703860FFF7B6FD054600BF3868C00585
:101BC0003ED4FFF7AFFD401B6428F7D9032002B0D5
:101BD000BDE8F081706800F00C00082803D170683F
:101BE000C0033FF576AF61683068002900F00C81D2
:101BF000B1F5A02F00F00081B1F5803F40F01A81CF
:101C000040F480301CE100BF2069002840F2000051
:101C1000C4F2422000F0888001210160FFF782FDBC
:101C2000054600BF306880073FF572AFFFF77AFDC9
:101C3000401B0228F6D9032002B0BDE8F08100BFA6
:101C4000E168306A002900F09D80052900F092804B
:101C5000012940F0AF8040F00100B1E00020C4F263
:101C600042200021C0F88014FFF75CFD054600BF4C
:101C7000706A80077FF556AFFFF754FD401B0228BE
:101C8000F6D9032002B0BDE8F08100BF0027C4F2FE
:101C9000422700203866FFF745FD022D05460DD18D
:101CA0003068800140F1DE80FFF73CFD401B0228D8
:101CB0004FF00300F4D902B0BDE8F0813068800134
:101CC0004FD5FFF72FFD401B02284FF00300F5D939
:101CD000F1E700BF40F20800C2F20000006844F6DD
:101CE000D351C1F26201A0FB0101480A019000BF7B
:101CF00000BF0198411E002801913FF413AF00BFBF
:101D00000198411E002801913FF40CAF00BF0198DB
:101D1000411E002801913FF405AF00BF0198411E0C
:101D200000280191E4D1FDE600210160FFF7FAFCF3
:101D3000054600BF306880077FF5F1AEFFF7F2FC83
:101D4000401B02284FF00300F4D9B4E77068216A01
:101D500000F480328A4209D1616A00F4701088422E
:101D600004D1002002B0BDE8F08100BF012002B024
:101D7000BDE8F08140F004003062306A40F00100BC
:101D80001EE000BF20F001003062306A20F0040045
:101D90003062FFF7C7FC054641F28837306A80079A
:101DA00020D5FFF7BFFC401BB8424FF00300F5D928
:101DB00081E700BF20F001003062306A20F00400AB
:101DC0003062FFF7AFFC054641F28837306A800782
:101DD00008D4FFF7A7FC401BB842F7D9032002B094
:101DE000BDE8F081B8F1000F3FF59FAEF06920F03B
:101DF0008050F06199E600BF40F480203060306888
:101E000040F480301CE000BF20F480303060306847
:101E100020F480203060FFF785FC054630688003A1
:101E20007FF55EAEFFF77EFC401B64284FF0030099
:101E3000F4D940E720F480303060306820F480200E
:101E40003060FFF76FFC0546306880033FF548AE11
:101E5000FFF768FC401B6428F6D9032002B0BDE8F8
:101E6000F08100BF206AB0F5803F05D17168A2689B
:101E700021F40031114371607168626A21F47411B8
:101E800011430843706001203866FFF74BFC04469D
:101E9000306880013FF565AFFFF744FC001B022866
:101EA0004FF00300F4D906E7002804BF0120704773
:101EB000B0B504460020A06294F8511029B984F806
:101EC0005000204600F032F80020022184F8511022
:101ED000D4E9001ED4E9023C0A6822F040020A60FC
:101EE00043EA0E02236942EA0C0242EA030CD4E9F7
:101EF0000532E5694CEA030C02F4007E4CEA0E035D
:101F000043EA050C256AA36A45EA0C052B430B60DE
:101F1000042303EA12424A60CA6922F40062CA61D9
:101F20000121606584F85110B0BD000070B586B025
:101F300040F60004C4F20104006804F520510026B4
:101F400088420596CDE90366029601D006B070BDC1
:101F500041F21800C4F20200016802AD41F4805160
:101F60000160016801F4805101910199016841F01B
:101F7000040101600068294600F004000190019806
:101F8000A020029002200390032005902046FFF736
:101F9000B1FA4020CDE90206204629460496FFF713
:101FA000A9FA06B070BD00002DE9F04381B00446E7
:101FB00090F85000012803D1022001B0BDE8F08361
:101FC0004FF001081D460F46164684F85080FFF773
:101FD000A9FB94F85110012942D18146002F4FF0FE
:101FE000010018BF002E00F0FB800320002284F8BF
:101FF000510062652763A686E686A263A287E28710
:10200000A0683146B0F5004F20682264626403D1B5
:10201000026842F4804202600268520603D40268F9
:1020200042F04002026062680139E368B2FA82F26B
:10203000B1FA81F152094909B3F5006F41EA020191
:102040003CD131B137F8021BC1602763E08E013803
:10205000E086E08E00286BD0681C0ED11DE000BF2A
:102060000220BDE0216B31F8022BC2602163E08EBB
:102070000138E086E08E00285AD020688168890700
:10208000F0D4FFF74FFBA0EB0900A842F2D338E0F1
:10209000FFF748FBE08E00284AD020688168890756
:1020A000F6D5216B31F8022BC2602163E08E013836
:1020B000E086E08E0028F0D13AE000BF39B13978EF
:1020C0000173206B01302063E08E0138E086E08EE2
:1020D00070B3681C0BD11BE0216B09780173206B76
:1020E00001302063E08E0138E086E08E00B3206886
:1020F00081688907F0D4FFF715FBA0EB0900A8421F
:10210000F3D303206CE000BFFFF70CFBE08E78B147
:10211000206881688907F7D5216B09780173206BE6
:1021200001302063E08E0138E086E08E0028EFD198
:1021300020688168090646D5691C0ED0FFF7F2FABF
:10214000A0EB09012068A94212D281680906F5D4E2
:1021500039E000BF8168090635D58168090632D5A6
:102160008168090644BF81685FEA01612BD5F1E708
:10217000416821F0E00141606168B1F5827F0AD1D8
:10218000A168B1F5004F02D0B1F5806F03D10168AD
:1021900021F040010160A16AB1F5005F07D101683B
:1021A00021F400510160016841F4005101600121F6
:1021B00084F85110002184F85010616D41F0200125
:1021C000616520216165A16831B900210091C16874
:1021D0000091806800900098606D002818BF012071
:1021E000002184F8518084F8501001B0BDE8F083DC
:1021F0002DE9F04182B0044690F85000012803D147
:10220000022002B0BDE8F08101201F4615460E46AF
:1022100084F85000FFF786FA94F85110804601299F
:1022200040F09680002E4FF0010018BF002D00F006
:102230005D81002F00F05A8194F85100002104289C
:102240001CBF052084F851006165A563E787A78757
:102250002663E7862068A7862164616401684906D1
:1022600003D4016841F04001016061687B1EE268AF
:10227000B1FA81F1B3FA83F3089D49095B09B2F51C
:10228000006F41EA030173D131B136F8021BC1601E
:102290002663E08E0138E0860126681C31D101E01A
:1022A000FFF740FAE08E18B9E08F002800F0C880F0
:1022B0002068816889070CD5E18E51B1012E08D1C3
:1022C000216B002631F8022BC2602163E18E0139B7
:1022D000E1868168C907E3D0E18F0029E0D0C068BA
:1022E000A16B012621F8020BA163E08F0138E08782
:1022F000D6E700BFFFF716FAA0EB0800A84280F06F
:10230000B180E08E18B9E08F002800F09980206835
:10231000816889070CD5E18E51B1012E08D1216B5E
:10232000002631F8022BC2602163E18E0139E1867B
:102330008168C907DED0E18F0029DBD0C068A16BBE
:10234000012621F8020BA163E08F0138E087D1E775
:102350006068B0F5827F09D104294FF0020040F097
:10236000C580A16800293FF45DAFBFE00220BDE059
:1023700039B131780173206B01302063E08E013870
:10238000E0860126681C33D102E000BFFFF7CAF9DE
:10239000E08E10B9E08F002852D02068816889074C
:1023A0000ED5E18E61B1012E0AD1216B002609788C
:1023B0000173216B206801312163E18E0139E186CF
:1023C0008168C907E2D0E18F0029DFD0C068A16B26
:1023D00001260870A06B0130A063E08F0138E08710
:1023E000D4E700BFFFF79EF9A0EB0800A84239D25E
:1023F000E08E08B9E08F18B32068816889070ED590
:10240000E18E61B1012E0AD1216B0026097801739A
:10241000216B206801312163E18E0139E1868168F9
:10242000C907DFD0E18F0029DCD0C068A16B01268D
:102430000870A06B0130A063E08F0138E087D1E71E
:102440002168886800061CD5681C10D0FFF76AF95F
:10245000A0EB08002168A84220D288680006F5D4C5
:102460000FE000BF032041E08868000609D58868B6
:10247000000606D58868000644BF88685FEA0060E9
:10248000F2D4A06800284FF000002FD10190CA6854
:10249000019289680191019928E000BF486820F005
:1024A000E00048606068B0F5827F0AD1A068B0F5AE
:1024B000004F02D0B0F5806F03D1086820F04000D3
:1024C0000860A06AB0F5005F07D1086820F40050EA
:1024D0000860086840F400500860012084F851004A
:1024E000616D41F02001616520216165012184F861
:1024F0005110002184F8501002B0BDE8F0810000B6
:10250000411E0020B0EB116F1CBF012070474EF23E
:102510001002CEF2000251604EF62351CEF20001BD
:10252000F0230B7007219060116070477047000026
:102530007047000090F83C20012A4FF0020219D0A9
:1025400080B580F83D2002685368D2F808C091E851
:10255000024023F0700319432CF0800343EA0E037A
:10256000516093600121002280F83D1080F83C20EA
:10257000BDE8804010467047002804BF0120704726
:1025800010B590F83D1031B9002180F83C10044698
:1025900000F056F82046022180F83D10016840F214
:1025A000FF740B68C4F2000442F6004CA142C4F26E
:1025B000010C15DCB1F1804F1AD040F20042C4F298
:1025C0000002914214D0A14218DCB1F1804F1DD01D
:1025D00040F20042C4F20002914217D01AE000BF5C
:1025E000614505D040F60002C4F200029142EAD1F2
:1025F000826823F070031343A142E6DD614505D0F4
:1026000040F60002C4F20002914203D1026923F4B1
:1026100040731343846923F08002D0F804E0C36858
:10262000224361450A60CB62C1F828E002D14269C9
:10263000CCF8302001224A6180F83D20002010BDF6
:102640000068B0F1804F18BF704780B582B041F28A
:102650001C00C4F202000168002241F00101016087
:102660000068002100F00100019001981C20FFF794
:10267000D9F81C2002B0BDE88040FFF7C1B80000C7
:102680000068C16841F00101C160816801F0070183
:10269000062903D0016841F0010101600020704764
:1026A00090F83C20012A4FF0020248D080B580F813
:1026B0003D20D0F800C04FF67772DCF8083023EAEE
:1026C0000202CCF808200B683F2B1DDD5F2B39DDA3
:1026D000602B5BD0B3F5005F00F09880702B26D1A3
:1026E000D1E901E3C968DCF8082043EA0E0322F4CB
:1026F0007F4243EA01211143CCF80810DCF80810AE
:1027000041F0770111E000BF1F2B03DC33B1102B28
:1027100004D00CE0202B01D0302B08D1DCF80810BD
:1027200021F07001194341F00701CCF80810012194
:10273000002280F83D1080F83C20BDE88040104623
:10274000704700BF402B41D0502BF0D1D1F804E0AE
:10275000C968DCF82030DCF8202022F00102CCF837
:102760002020DCF8182022F0F00242EA011123F0C8
:102770000A0242EA0E02CCF81810CCF82020DCF84D
:10278000081041F0570121F02001CEE7D1F804E014
:10279000C968DCF8203023F01003CCF82030DCF8D6
:1027A0001830DCF8202023F4704322F0A00243EA22
:1027B000013142EA0E12CCF81810CCF82020DCF8D7
:1027C000081041F0670121F01001AEE7D1F804E0F4
:1027D000C968DCF82030DCF8202022F00102CCF8B7
:1027E0002020DCF8182022F0F00242EA011123F048
:1027F0000A0242EA0E02CCF81810CCF82020DCF8CD
:10280000081041F0470121F030018EE7D1E901E3E2
:10281000C968DCF8082043EA0E0322F47F4243EA49
:1028200001211143CCF80810DCF8081041F4804174
:102830007BE700007047000010B501680446086996
:10284000800744BFC8685FEA807039D408694007D0
:1028500044BFC8685FEA40703ED40869000744BFBF
:10286000C8685FEA007045D40869C00644BFC868FC
:102870005FEAC0604AD40869C0071CBFC8685FEA45
:10288000C07051D10869000644BFC8685FEA0060A3
:1028900052D40869400644BFC8685FEA406053D418
:1028A0000869800646BFC8685FEA806010BD6FF0A7
:1028B000200220460A61BDE81040FFF739BE00BF84
:1028C0006FF002000861012020778869800743D0FB
:1028D0002046FFF7AFFF45E06FF0040008610220DB
:1028E0002077886910F4407F40D02046FFF7A2FF90
:1028F00042E000BF6FF00800086104202077C8693B
:1029000080073DD02046FFF795FF3FE06FF01000B5
:10291000086108202077C86910F4407F3AD020462B
:10292000FFF788FF3CE000BF6FF001000861204620
:1029300000F03EF82168A5E76FF0800008612046AE
:10294000FFF7F4FD2168A4E76FF04000086120461E
:1029500000F054F82168A3E7204600F025F820464F
:1029600000F024F82168002020776FE7204600F06F
:102970001BF8204600F01AF82168002020776CE749
:10298000204600F011F8204600F010F821680020E1
:10299000207769E7204600F007F8204600F006F8A7
:1029A00021680020207766E770470000704700002C
:1029B0000068B0F1804F18BF704710B540F6004472
:1029C000C4F2010420464FF48061FEF79DFE40F200
:1029D000B000C2F20000407801280BD120464FF42D
:1029E0008061FEF791FE40F21800C2F2000001681B
:1029F00001310160BDE810407047000070470000E1
:102A000070470000B0B501680A68CC684B6902F0F5
:102A10002F05202D04F0200512D18DB190F83A2019
:102A2000222A40F017818268B2F5805F3ED10369A7
:102A3000826A4968002B61D0C9B222F8011B61E0AB
:102A40005FEA027C1EBF03F0010E04F4907313EBE7
:102A50000E0337D1130617D514F0800314D090F865
:102A60003920212A40F0F6808368026AB3F5805F3E
:102A700030D113886FF35F234B600369002B14BFC1
:102A800001320232026229E0520640F1E38014F082
:102A9000400208BFB0BDCA6822F04002CA602021CF
:102AA00080F83910BDE8B04000F05EBA02694968AC
:102AB000002A826A18BF01F07F01531C83621170E3
:102AC00021E000BFD30718BF14F4807336D1530739
:102AD0003AD440E0531C036212784A60C28C013A37
:102AE0001304C28440F0B680C86820F08000C8603B
:102AF000C86840F04000C860B0BD00BF6FF35F2100
:102B000022F8021B8262C18D01390A04C18540F09E
:102B1000A1800168CA6822F02002CA60CA6822F453
:102B20008072CA604A6922F001024A61202180F85D
:102B30003A10BDE8B04000F051B900BFC36B43F09C
:102B40000103C363530706D5BEF1000F03D0C36B67
:102B500043F00203C363930706D5BEF1000F03D011
:102B6000C36B43F00403C363BCF1000F06D5BEF191
:102B7000000F03D0C36B43F00803C363C36B002B88
:102B800068D092063BD5D5B390F83A20222A36D1A8
:102B90008268B2F5805F07D10369826A49687BB1B8
:102BA000C9B222F8011B0FE002694968002A826A53
:102BB00018BF01F07F01531C8362117005E000BF54
:102BC0006FF35F2122F8021B8262C18D4A1EC2850B
:102BD0000168120413D1CA68044622F02002CA60B8
:102BE000CA6822F48072CA604A6922F001024A610E
:102BF000202180F83A1000F0F1F8216820464A6957
:102C0000C36B02F0400203F00803D21824D0CA6854
:102C100022F49072CA604A6922F001024A612022BD
:102C200080F83A204A6952061CD54A6922F04002CF
:102C30004A61416BB1B143F2A512C0F600020446ED
:102C400008464A63FEF7D0FB20B1606B416BBDE8DC
:102C5000B0400847B0BD00BF0446FFF7D1FE0020DA
:102C6000E063B0BDBDE8B040FFF7CABE002804BFB6
:102C70000120704710B5044690F8390028B90020AB
:102C800084F83800204600F061F8242084F83900E8
:102C90002068D4E90212C36823F40053C3600369B7
:102CA00023F440531A430261D4E904231143C26858
:102CB000194341F20C639A431143C1604169A2690F
:102CC00021F44071114343F60002C4F20102904224
:102CD000416103D0FEF7C0FE02E000BFFEF7D0FE68
:102CE000D4E90023192148439900B0FBF1F048F2E0
:102CF0001F5CC5F2EB1CA0FB0C314FF69C7349091D
:102D0000C0F6FF7301FB0300322303EB0010A0FBAE
:102D10000C03F02000EA531000EB0110C3F3431141
:102D2000084490601069202120F49040106150699F
:102D300020F02A005061D06840F40050D06000209C
:102D4000E06384F8391084F83A1010BD70B586B08D
:102D500040F60004C4F20104006804F54051002666
:102D600088420596CDE90366029601D006B070BD93
:102D700041F21800C4F20200016802AD41F4804142
:102D80000160016801F4804101910199016841F0FD
:102D9000040101600068294600F0040001900198D8
:102DA0004FF400700290022003900320059020460B
:102DB000FEF7A0FB4FF48060CDE9020620462946CD
:102DC0000496FEF797FB252000210022FEF72AFD3E
:102DD0002520FEF715FD06B070BD0000704700000D
:102DE0002DE9F041044690F8390020280CD10E4618
:102DF00000294FF0010018BF002A01D1BDE8F08181
:102E000094F83800012803D10220BDE8F08100BF0A
:102E1000012084F838000020E06321201D4684F85A
:102E200039001746FEF77EFCA784E784E18C07464D
:102E300000295FD005F1010806E000BF16F8011B6C
:102E40004160E18C002956D0E08C0138E084206894
:102E5000A1680268B1F5805F4FEA02611CD10029C8
:102E60000DD4B8F1000F29D0002D6AD0FEF75AFC1E
:102E7000C11B2068A94264D801680906F6D53188CB
:102E80006FF35F2141602169002914BF01360236CA
:102E9000E18C0029D8D12EE00029CFD4B8F1000F61
:102EA0001AD0002D4DD000BFFEF73CFCC11B20689E
:102EB000A94246D801680906F6D5BFE701680906A8
:102EC000DDD4016809065CBF01685FEA0161D6D400
:102ED00001680906F2D5D2E701680906AED4016897
:102EE00009065CBF01685FEA0161A7D401680906B1
:102EF000F2D5A3E72068016849060FD40DB3691C19
:102F000019D10168490609D4016849065CBF016806
:102F10005FEA416102D401684906F2D5202084F8B5
:102F200039000020002184F83810BDE8F08100BF8E
:102F300000684006F2D4FEF7F5FBC11B2068A942E9
:102F4000F6D9C16821F4D071C160416921F0010155
:102F50004161202084F8390084F83A0003200021E0
:102F600084F83810BDE8F08170470000FEE70000EB
:102F7000FEE70000FDF71EBD01884288838809BA7C
:102F800052BA02EB11411ABAC38801EB12411ABAC4
:102F9000038901EB12411ABA438901EB12411ABAB3
:102FA000838901EB12411ABAC38901EB12411ABAA3
:102FB000038A408A01EB12411ABA01EB124100BAAE
:102FC00001EB1040010C08D080B20844010C1EBF78
:102FD00080B208445FEA104104D1C04300BA000C3B
:102FE000704700BF80B20844B0F5803F28BF012081
:102FF000C04300BA000C704710B540F23414C2F25E
:10300000000400BF20464FF40071FDF745FB002887
:1030100008BF10BD217B0829F4D1617B41B106298D
:10302000F0D181B22A29EDD32046FDF7EBF8E9E78C
:10303000E17D0629E6D181B2204600F031F8E1E7D2
:10304000704700007047000070470000FEF770BB3B
:1030500041F20000C4F202000168002241F00101C7
:1030600001604168CFF6FF021140416001684FF6F0
:10307000FF72CFF6F66211400160016821F48021F1
:103080000160416821F4FE0141604FF41F0181603D
:103090004EF60850CEF200004FF00061016070471C
:1030A000F0B581B00446D0F81A20D0F81E3040F2B6
:1030B0002900C2F20000007840F26405C2F2000567
:1030C000C5E9003290B140F23002C2F2000203E0E2
:1030D000013802F10A0209D013682F689F42F7D124
:1030E00013895768AB81AF60F2E700BF264656F8F8
:1030F000060FC5F80E0096F82900B28818286A82D3
:1031000031D194F82E0004EB900090F82920102A79
:1031100001D0032A06D1CBB220460F46194600F053
:10312000D3F9394640F21C00C2F2000000780228B0
:1031300019D1D4F81E0040F2D232C2F20002C2F815
:103140000A003068D4F81A305060B08813601081DB
:103150002068C2F80E00A088508240F21D00C2F222
:10316000000002220270686843F6DA42C0F60002EC
:103170001368C4F81A0090883360B080A8892A6860
:10318000A080C4F81E20AA682046226001B0BDE8D5
:10319000F040FFF7EFBE000040F28C30C2F20000BA
:1031A000FFF74ABB406A0021C185C184FFF728BCF4
:1031B00040F2CC31C2F2000108607047B0B540F275
:1031C000CC31C2F200010C680546FCF7ABFF82B2BD
:1031D000204629466423BDE8B040FFF701BE000049
:1031E00040F2B800C2F20000FFF70CBCFEE700009E
:1031F000ADF5087D40F2300040F60048C2F2000014
:103200000024C4F20108C0F80A40FEF79FFA4FF408
:1032100080300227CDE90304CDE909704FF4E010B6
:1032200001260B9002A8CDE90744CDE9054402969A
:103230000696FEF739FC0F20CDE982074FF4806037
:10324000CDE9850482A802218494FEF727FB41F290
:103250001800CDE90444CDE90244C4F2020001683B
:10326000012241F020010160016801F020018291FA
:103270008299016841F004010160016801F00401D4
:1032800082918299016841F0080101600068022181
:1032900000F00800829082984046FEF73DFA40F622
:1032A000010002900020C1F2210002ADCDE9030629
:1032B00040462946FEF71EF9032005904046294660
:1032C000CDE902760496FEF715F9062000210022CA
:1032D000FEF7A8FA0620FEF793FA28200021002224
:1032E000FEF7A0FA2820FEF78BFA40F2343908F5F1
:1032F0001050C2F200094FF4827189E813000A20CD
:103300004FF400721023C9E90A404846C9E9034452
:10331000C9E90542C9F81C30C9E90844FEF7C4FDF3
:1033200040F2B006C2F2000608F53050354645F8C6
:10333000080F4FF4E1300C21C5E901042846C5E926
:103340000344C5E90514EC61FFF790FC40F28C37AB
:10335000C2F200074FF0804041F61F4140F6C31211
:1033600087E8130038460594CDE90344CDE982444B
:10337000C7E90324BC61FFF7FFF84FF480500290C7
:1033800002A93846FFF78CF982A93846FFF7D2F830
:103390002846FFF70DFF4846FDF778FC3846FFF753
:1033A0006FF93EA0FFF70AFF40F21405C2F20005D4
:1033B0002846EC70FCF78CFF0A20FEF76DF801340C
:1033C000B4F5807FF4D140464FF4806100220024A0
:1033D000FEF7A2F940F22800C2F2000001218DF8A8
:1033E0000842017040F2300040F22908C2F20000A9
:1033F000C2F200080E30019002E000BFFFF7FCFDB2
:10340000707801283ED1D8F80000012834DBDDF8BF
:1034100004A04FF0000903E081450AF10A0A2BDA03
:10342000494609F101098145F6DA01EB810040F2D4
:103430003001C2F2000101EB40052E1D5746CB467C
:103440003C1F204629463A463346FCF777FF0A20C0
:10345000FEF722F82846214632463B46FCF76EFF2F
:103460000A20FEF719F8D8F800000BF1010B83458C
:1034700007F10A07E4DBCFE740F2B006C2F200062C
:10348000002474709DF808020028B7D002A84FF4F9
:1034900000718DF80842FDF7FFF8AFE74B686F69E0
:1034A0002074616F207468616E6820636F6E670DB1
:1034B0000A0A54687563206869656E2071756574C1
:1034C0002E2E2E2E0D0A0A002DE9F04F81B0102A63
:1034D00058D0032A40F08E81018A90F82E2009BA34
:1034E000090CA1EB9201A1F1140293B240F2780110
:1034F000C2F200010D2B4A80C0F07C8140F2D03234
:10350000C2F20002002700F136031780CE19367987
:103510001F447E7217884D887E1CB7B2093DBD429C
:103520001680F3DC0021044624F8321F0546A4F17E
:10353000240024F81A1CFFF71FFD34F8221C24F87D
:103540001A0C0BBA6FF00B0000EB134290B202386A
:10355000A4F11801C0F034811F0CA7F10E0301265D
:1035600006EB530616F0030600F00E81698B012E60
:1035700009BA00EB114040F0CD8005F11C011A465C
:1035800002E100BF018A90F82E2009BA090CA1EBD4
:103590009201A1F1140291B240F2780EC2F2000E33
:1035A0000D29AEF802206DD340F2D038C2F20008E7
:1035B00000230D29A8F8003064D0A1F10D040E39C4
:1035C00000F13609032904F0030C03D20021002482
:1035D00035E000BF24F00301AEF1040500F13F0621
:1035E00000240EF1040A00BF16F8042F44F003076C
:1035F0002A7244F00102A8F8002092B202EB0903FB
:103600005B7B04390AF8023044F00202A8F800207B
:1036100092B202EB090393F80DB0A8F80070BFB2A4
:1036200007EB09035B7B04F1040405F104050AF8C8
:1036300002B00AF80730A8F80040D5D1A1B2BCF119
:10364000000F1FD001EB0902527B71440A71611C0B
:10365000BCF1010FA8F8001014D089B201EB0902E7
:10366000527B71440A71A11CBCF1020FA8F8001032
:1036700008D089B201EB0902527B71440A71E11C46
:10368000A8F800109EF80010062901D2072203E0D6
:103690000A294FF0000202D880F844204A1C002179
:1036A000044624F8321F0546A4F124008EF80020B9
:1036B00024F81A1CFFF760FC34F8221C24F81A0CBA
:1036C0000BBA6FF00B0000EB134290B20238A4F17A
:1036D000180175D31F0CA7F10E03012606EB530644
:1036E00016F003062AD0698B012E09BA00EB1140AF
:1036F00004D105F11C011A4620E000BFA98B022E5F
:1037000009BA00EB114011D105F11E01A7F1100219
:1037100014E000BFA98B022E09BA00EB11402BD197
:1037200005F11E01A7F110022EE000BFE98BA7F101
:10373000120209BA00EB114005F120019BB2062BE1
:103740003ED300BF31F8083B083A31F8067C1BBA7B
:1037500000EB13403BBA31F8047C00EB13403BBA5A
:1037600000EB134031F8023C97B21BBA012F00EB7B
:103770001340E7D824E000BFE98BA7F1120209BA91
:1037800000EB114005F120019BB2062B18D300BFBE
:1037900031F8083B083A31F8067C1BBA00EB1340BD
:1037A0003BBA31F8047C00EB13403BBA00EB13400A
:1037B00031F8023C97B21BBA012F00EB1340E7D857
:1037C00012041CBF097800EB0120010C0ED080B25E
:1037D0000844010C1EBF80B208445FEA104105D0C6
:1037E00080B20844B0F5803F28BF0120C04300BA32
:1037F000000C208001B0BDE8F08F00000FB4084B32
:1038000010B504A902AA039800F01CF8044602A906
:10381000002000F048FA204610BC5DF814FB0000C0
:10382000A73C000802E008C8121F08C1002AFAD10C
:1038300070477047002001E001C1121F002AFBD130
:10384000704700002DE9FF4F8DB00F46054600265A
:1038500006E025280BD0DDE90F1290476D1C761C81
:1038600028780028F5D111B03046BDE8F08F00244B
:10387000A246A1460122EC4900E0044315F8013FAD
:10388000203B02FA03F00842F7D128782A2810D00A
:103890006FF02F022878A0F13001092914D80AEB23
:1038A0008A0102EB410144F0020400EB010A6D1CA5
:1038B000F0E701CF5FEA000A03D544F40054CAF1EF
:1038C000000A44F002046D1C28782E2817D115F840
:1038D000010F44F004042A280ED06FF02F0228783C
:1038E000A0F1300109290AD809EB890102EB410155
:1038F00000EB01096D1CF2E757F8049B6D1C28785A
:103900006C280FD006DC4C2817D068280DD06A2808
:1039100014D104E0742810D07A280FD10DE044F4BB
:1039200000140AE044F4801401E044F4401469787F
:10393000814202D104F580146D1C6D1C2A786E2A18
:103940001FD00CDC632A31D004DC002A8BD0582A2B
:1039500011D1A3E0642A68D0692A0CD165E0732AEA
:103960002ED004DC6F2A73D0702A04D19BE0752A14
:103970006FD0782A6ED01046DDE90F129047761C82
:1039800050E1C4F30250022806D0032809D00428CD
:1039900001CF09D0066045E101CFF117C0E9006110
:1039A00040E101CF06803DE106703BE117F8040BD2
:1039B0008DF8000000208DF80100EB46012003E0A7
:1039C00057F804BB4FF0FF3061074FF0000102D4FD
:1039D0000DE008F10101884649450FDA8045F8DB22
:1039E0001BF808100029F4D108E008F1010188460D
:1039F0008142FADB1BF808100029F6D1DDE90F231C
:103A0000AAEB08008146214600F036F9304400EB6D
:103A1000080604E0DDE90F121BF8010B9047B8F12E
:103A20000108F7D221464846F7E00A21C4F30253C1
:103A30004FF0000B0891022B04D001CFC117032BCC
:103A400009D00AE0FF1D27F00707F7E8020108E0A8
:103A500032E01FE020E000B2C117042B01D140B2D8
:103A6000C117031E71F1000307DA4FF0000CD0EB11
:103A70000C006CEB01012D2302E0230504D52B2360
:103A80008DF82430012303E0E30701D02023F7E77A
:103A9000984658E00A2110E010210EE010204FF067
:103AA000000B08900CE010214FF0000B44F00404D0
:103AB0004FF00809089103E008214FF0000B08912E
:103AC000C4F30253022B04D001CF0021032B06D0F4
:103AD00006E0FF1D27F00707F7E8020103E080B2C8
:103AE000042B00D1C0B24FF0000823072BD5702A59
:103AF00007D0DDF820C08CF0100C5CEA0B0C05D070
:103B00000EE040238DF82430012308E050EA010341
:103B100006D030238DF824308DF8252002239846D6
:103B2000DDF820C08CF0080C5CEA0B0C0BD150EADD
:103B3000010301D1630706D530238DF824304FF0FF
:103B40000108A9F10109582A04D038A20B9208AA49
:103B50000A920BE03AA2F9E75B46089AFCF7E9FA09
:103B60000B9B9B5C0A9A521E0A92137050EA010248
:103B7000F2D10A98ADEB000000F1200B600702D5EE
:103B800024F4803401E04FF00109D94502DDA9EBAE
:103B90000B0000E0002000EB0B0141440890AAEB71
:103BA000010AE00306D4DDE90F232146504600F068
:103BB00063F806444FF0000908E009A911F809006C
:103BC000DDE90F12904709F10109761CC145F4DBCC
:103BD000E0030CD5DDE90F232146504600F04CF8F8
:103BE000064404E0DDE90F1230209047761C089966
:103BF000481E08900029F5DC08E00A980A99007828
:103C0000491C0A91DDE90F129047761CBBF10001B7
:103C1000ABF1010BF1DC21465046DDE90F2300F04A
:103C200019F806446D1C1BE60928010030313233B7
:103C300034353637383961626364656600000000E8
:103C400030313233343536373839414243444546D2
:103C5000000000002DE9F041044600251E461746ED
:103C6000880404D405E039462020B0476D1C641E4A
:103C7000F9D52846BDE8F0812DE9F041044600253C
:103C80001E469046C80301D5302700E0202788044F
:103C900004D505E041463846B0476D1C641EF9D591
:103CA0002846BDE8F0810A68531C0B60107070470D
:103CB00001020000000000000000010203040607EA
:103CC00008090000000001020304020304050607BE
:103CD00008090A0B0C0D0E0F101000002007199890
:103CE0004B686F692074616F206D6F64756C65201F
:103CF000454E4332384A3630207468617420626120
:103D00006920210D0A000000283D00080000002065
:103D10002000000024380008483D00082000002052
:103D2000D007000034380008010000001000000037
:103D30000024F40001000000C0A800D2C0A80000C8
:083D4000010000000101000078
:04000005080000ED02
:00000001FF
