:020000040800F2
:10000000C007002001010008D12F00088D2F000833
:10001000912F00080106000885300008000000004C
:10002000000000000000000000000000D92F0008C0
:100030000506000800000000D52F0008DD2F00088D
:100040001B0100081B0100081B0100081B01000820
:100050001B0100081B010008D91300081B01000840
:100060001B0100081B0100081B0100081B01000800
:100070001B0100081B0100081B0100081B010008F0
:100080001B0100081B0100081B0100081B010008E0
:100090001B0100081B0100081B0100081B010008D0
:1000A0001B0100081B0100081B0100081B010008C0
:1000B000313000081B0100081B0100081B0100086B
:1000C0001B0100081B0100081B0100081B010008A0
:1000D0001B010008793000081B0100081B01000803
:1000E0001B0100081B0100081B010008DFF80CD0F1
:1000F00000F050F80048004789300008C007002091
:100100000648804706480047FEE7FEE7FEE7FEE7B1
:10011000FEE7FEE7FEE7FEE7FEE7FEE7E12F000869
:10012000ED000008421C10F8011B0029FBD1801AC9
:1001300070472DE9F05F0546002092469B468846B1
:100140000646814640241BE0284641464746224653
:1001500000F047F853465A46C01A914110D3114651
:100160001846224600F02EF82D1A67EB01084F467C
:1001700022460120002100F025F817EB00094E412E
:10018000201EA4F10104DFDC484631462A464346DE
:10019000BDE8F09F1CB5094800900948019005464C
:1001A000009C06E0E06840F0010394E807009847EF
:1001B0001034AC42F6D3FFF79DFF000074390008FD
:1001C00094390008202A04DB203A00FA02F10020CA
:1001D00070479140C2F1200320FA03F31943904085
:1001E0007047202A04DB203A21FA02F000217047F0
:1001F00021FA02F3D040C2F120029140084319468F
:10020000704700002DE9F04F99B00446867990F8C8
:100210000790077A90F809A0857AD0F81C80C07AF8
:1002200040F2100BC2F2000BCDE90C0894F8260046
:100230009BF800104FEA18220A924FEA18428842AF
:100240004FEA186009920B9011D194F827009BF89F
:10025000011088420BD194F828009BF802108842C4
:1002600005D194F829009BF80310884204D00DA80A
:1002700000F0E2F8013005D0207D98B319B0BDE858
:10028000F08F00BF40F20C00C2F2000002680A9832
:100290005FFA88F35FFA80FC0998CDE9057AC1B26C
:1002A0000C98CDE900C108900B9802A981E84102A1
:1002B00040F25F0043F6EE01C2F20000C0F600011A
:1002C000079503F08FF840F25F00C2F2000002F0E1
:1002D000C1FE40F25E00C2F2000001210170207DEB
:1002E0000028CBD1607D0128C8D10C988DF83A60E8
:1002F0008DF83F008DF85F0043F6C200C0F60000A5
:10030000016880881091ADF84400ADF8540040F2C7
:100310000860C0F20010CDF8460008201491DBF808
:100320000010C0F20640CDF84A004FF40070CDF83E
:100330005610ADF84E000DF13A002A218DF83B9091
:100340008DF83C708DF83DA08DF83E508DF85A60C8
:100350008DF85B908DF85C708DF85DA08DF85E5027
:10036000CDF8608002F016FE0DA800F065F80130AF
:1003700084D140F20C00C2F2000002680A98099988
:10038000C0B2C9B20C9CCDE900010B98089402A937
:1003900040F25F0481E84102C2F2000443F6EE013C
:1003A0005FFA88F3C0F600012046CDE9057A07958B
:1003B00003F018F8204602F04DFE40F25E00C2F253
:1003C00000000121017019B0BDE8F08F80B58CB03C
:1003D0000021ADF8281009914FF0FF310191ADF8DF
:1003E0000810006843F6C201C0F60001CDF82A00EB
:1003F00088880A68ADF80E00ADF81E0040F208606B
:1004000040F21001C0F20010C2F200010490082076
:100410000968C0F2064005904FF480700891ADF86D
:10042000180001A82A21CDF80A20CDF81A2002F0E0
:10043000B1FD0CB080BD000040F2280CC2F2000CEF
:1004400002789CF804309A4211D143789CF8051048
:100450008B420CD181789CF80630994207D1C17843
:100460009CF80730994202BF012040B270479CF8C7
:100470000E108A4211D141789CF80F3099420CD16C
:1004800081789CF81030994207D1C1789CF81130DE
:10049000994202BF022040B270479CF818108A426D
:1004A00011D141789CF8193099420CD181789CF88F
:1004B0001A30994207D1C1789CF81B30994202BF8B
:1004C000032040B270479CF822108A4211D1417833
:1004D0009CF8233099420CD181789CF824309942C1
:1004E00007D1C1789CF82530994202BF042040B260
:1004F00070479CF82C108A4211D141789CF82D301D
:1005000099420CD181789CF82E30994207D1C1785C
:100510009CF82F30994202BF052040B270479CF8EA
:1005200036108A4211D141789CF8373099420CD16B
:1005300081789CF83830994207D1C1789CF83930DD
:10054000994202BF062040B270479CF840108A4290
:1005500011D141789CF8413099420CD181789CF8B6
:100560004230994207D1C1789CF84330994202BF8A
:10057000072040B270479CF84A108A4211D1417856
:100580009CF84B3099420CD181789CF84C309942C0
:1005900007D1C1789CF84D30994202BF082040B283
:1005A00070479CF854108A4211D141789CF855301C
:1005B00099420CD181789CF85630994207D1C17884
:1005C0009CF85730994202BF092040B270479CF80E
:1005D0005E108A4211D141789CF85F2091420CD183
:1005E00081789CF86020914207D1C0789CF8611016
:1005F000884202BF0A2040B27047FF2040B27047D5
:10060000FEE700007047000070B582B040F22005A0
:10061000C2F20005297800F060068E423FD040F615
:100620000044C4F2010420460221002201F06CF8CB
:10063000BF2168688DF8041001A901220A2301F086
:10064000ABFC032168688DF805100DF1050101224E
:100650000A2301F0A1FC20460221012201F054F8F6
:100660002046022100222E70760901F04DF89F21CC
:1006700068688DF806100DF1060101220A2301F0C9
:100680008BFC68680DF1070101220A238DF80760D1
:1006900001F082FC20460221012201F035F802B06F
:1006A00070BD00002DE9F04F85B0064640F60049C8
:1006B00039200D46C4F20109FFF7A6FF4846022182
:1006C0000022002701F020F840F22008C2F20008C2
:1006D0001921D8F804008DF813100DF1130101222F
:1006E0000A234FF00A0A01F057FCD8F804004FF033
:1006F000FF0B0DF113010DF1120201238DF813B060
:10070000CDF800A001F06CFD9DF812404846022192
:10071000012200F0F9FF002C00F04E81B8F8021021
:1007200000200022039200F0F5F948460221002241
:1007300000F0EAFFD8F804003A270DF11301012276
:100740000A238DF8137001F027FCD8F804000DF18E
:1007500013010DF1120201238DF813B0CDF800A0A2
:1007600001F03EFD9DF8124048460221012200F0B2
:10077000CBFF484602210022A8F8024000F0C4FF47
:10078000D8F804000DF1130101220A238DF813702B
:1007900001F002FCD8F804000DF113010DF1120272
:1007A00001238DF813B0CDF800A001F019FD9DF8DC
:1007B000124048460221012200F0A6FFB8F80200CC
:1007C000022140EA0420A8F802004846002200F076
:1007D0009BFFD8F804000DF1130101220A238DF8C4
:1007E000137001F0D9FBD8F804000DF113010DF1DD
:1007F000120201238DF813B0CDF800A001F0F0FC37
:100800009DF812A04846022101220A2400F07CFF34
:1008100048460221002200F077FFD8F804000DF1CD
:10082000130101220A238DF8137001F0B5FBD8F8EB
:1008300004000DF113010DF1120201238DF813B024
:1008400000940A2701F0CCFC9DF812404846022192
:10085000012200F059FF4AEA0420043880B2A8427D
:1008600038BF05464846022100223A2400F04CFFDA
:10087000D8F804000DF1130101220A238DF813406A
:1008800001F08AFBD8F804000DF113010DF11202FA
:1008900001238DF813B0009701F0A2FCAA469DF940
:1008A000125048460221012200F02EFF4846022144
:1008B000002200F029FFD8F804000DF113010122F5
:1008C0000A238DF8134001F067FBD8F804000DF1FE
:1008D00013010DF1120201238DF813B0009701F0FE
:1008E0007FFC48460221012200F00EFFB5F1FF3FD8
:1008F00037DC48460221002200F006FFD8F8040049
:100900000DF1130101220A238DF813404FF00A0B59
:1009100001F042FBBAF1000FCDF808A018D0FF2477
:100920000DF113070DF11205D8F8040039462A46D7
:100930000123AAF1010A8DF81340CDF800B001F0AF
:100940004FFC9DF812005FEA0A4106F8010BEBD15B
:100950000020307048460221012200F0D5FE0298A6
:100960000390B8F802100C20B1F5406F88BF40F634
:10097000FF3100F0CFF848460221002200F0C4FE0B
:100980009E21D8F804008DF813100DF113010122F7
:100990000A2301F001FB4021D8F804008DF8131060
:1009A0000DF1130101220A2301F0F6FA4846022153
:1009B000012200F0A9FE039F384605B0BDE8F08F84
:1009C0002DE9F04F85B040F6004A40F220070D4671
:1009D000C4F2010AC2F200074FF00A084FF0FF0903
:1009E0000DF113060DF11204019000BF1F20FFF757
:1009F0000BFE50460221002200F086FE78681F217F
:100A00008DF811100DF1110101220A2301F0C4FA31
:100A100078683146224601238DF81390CDF8008086
:100A200001F0DEFB9DF812B050460221012200F0D9
:100A30006BFE5FEA0B70D9D402204FF4406100F0E6
:100A400069F805F5406081B2062000F063F8504671
:100A500002210022002600F057FE78687A240DF16A
:100A60000B0101220A238DF80B4001F095FA7868FA
:100A700003A901220A238DF80C6001F08DFA50467B
:100A80000221012200F040FE50460221002200F027
:100A90003BFE78680DF10D0101220A238DF80D400F
:100AA00001F07AFA8DB101980DF10E04461E00BFD7
:100AB00016F8011F78688DF80E10214601220A23CE
:100AC000013D01F069FA2804F2D1504602210122C9
:100AD00000F01AFE50460221002200F015FE9F2170
:100AE00078688DF80F100DF10F0101220A2301F033
:100AF00053FA082178688DF8101004A901220A23FE
:100B000001F04AFA50460221012200F0FDFD05B035
:100B1000BDE8F08F2DE9F04182B00D460646FFF7A3
:100B200073FD40F60044C4F2010420460221002275
:100B30004FF0020800F0E8FD40F220073146C2F213
:100B4000000768F35F1178688DF8041001A901228D
:100B50000A2301F021FA78680DF1050101220A2328
:100B60008DF8055001F018FA20460221012200F00C
:100B7000CBFD0136F0B22D0AFFF746FD20460221DB
:100B8000002200F0C1FD786868F35F160DF10601E0
:100B900001220A238DF8066001F0FEF978680DF154
:100BA000070101220A238DF8075001F0F5F92046CC
:100BB0000221012200F0A8FD02B0BDE8F081000092
:100BC0002DE9F04F83B0064640F60044D420884615
:100BD000C4F20104FFF718FD20460221002200F0B4
:100BE00093FD40F22007C2F20007542178688DF887
:100BF00005100DF1050101220A230A2501F0CCF9A7
:100C000078680DF1060101220A238DF8066001F0D3
:100C1000C3F920460221012200F076FDD62041468C
:100C2000FFF778FF4FF0FF080DF1080A0DF10B0BED
:100C30000DF10A06EA20FFF7E7FC20460221002218
:100C400000F062FD78680DF1070101220A238DF89A
:100C5000075001F0A1F978680DF10901524601230E
:100C60008DF80980009501F0BBFA78685946324644
:100C700001238DF80B80009501F0B2FA9DF80A90DF
:100C800020460221012200F03FFD5FEAC970D1D168
:100C900003B0BDE8F08F00002DE9F04F83B040F6BF
:100CA000004940F22008C4F20109C2F20008C8F865
:100CB0000400484602210022002400F025FDD8F857
:100CC00004000DF10B054FF0FF0A294601220A230B
:100CD0008DF80BA04FF00A0B01F05EF9D8F8040074
:100CE0000DF10B0101220A238DF80B4001F054F99C
:100CF00048460221012200F007FD022000F0C8FB57
:100D00001D240DF10A0600BF48460221002200F012
:100D1000FBFCD8F80400294601220A238DF80B4079
:100D200001F03AF9D8F804002946324601238DF83B
:100D30000BA0CDF800B001F053FA9DF80A704846B8
:100D40000221012200F0E0FC002FDDD000204FF056
:100D5000000AFFF759FC48460221002200F0D4FCAB
:100D6000D8F804000DF10B0101220A238DF80BA025
:100D70000A2601F011F9D8F80400FF250DF10B0146
:100D80000DF10A0201238DF80B50009601F028FAAC
:100D90009DF80A4048460221012200F0B5FCFA2CD9
:100DA00040F0108308200021A8F802A0FFF7B2FE4F
:100DB0000A2040F6FF31FFF7ADFE04204FF44061FA
:100DC000FFF7A8FE062041F2FF11FFF7A3FE0C205B
:100DD0000021FFF79FFE0E200021FFF79BFEC020A1
:100DE000FFF712FC48460221002200F08DFCD8F8E3
:100DF000040040270DF10B0101220A238DF80B702E
:100E000001F0CAF80D21D8F804008DF80B100DF18F
:100E10000B0101220A2301F0BFF8484602210122FA
:100E200000F072FCC120FFF7EFFB484602210022D0
:100E300000F06AFCD8F804004FF0410B0DF10B01F3
:100E400001220A238DF80BB001F0A6F8D8F80400AF
:100E50000DF10B0101220A238DF80BA001F09CF883
:100E600048460221012200F04FFC484602210022A0
:100E700000F04AFC8221D8F804008DF80B100DF127
:100E80000B0101220A2301F087F83221D8F804006F
:100E90008DF80B100DF10B0101220A2301F07CF8F3
:100EA00048460221012200F02FFCC62040F61241E4
:100EB000FFF730FEC420FFF7A7FB484602210022BF
:100EC00000F022FCD8F8040044240DF10B010122AB
:100ED0000A238DF80B4001F05FF81221D8F80400C6
:100EE0008DF80B100DF10B0101220A2301F054F8CB
:100EF00048460221012200F007FCCA2040F2DC51E2
:100F0000FFF708FEE420FFF77FFB4846022100229E
:100F100000F0FAFBD8F804000DF10B0101220A23BE
:100F20008DF80B4001F038F8D8F804000DF10B01F2
:100F300001220A238DF80BA001F02EF84846022169
:100F4000012200F0E1FBE520FFF75EFB48460221AD
:100F5000002200F0D9FB4521D8F804008DF80B10D1
:100F60000DF10B0101220A2301F016F8D8F8040054
:100F70000DF10B0101220A238DF80BA001F00CF8F2
:100F800048460221012200F0BFFBE220FFF73CFBB4
:100F900048460221002200F0B7FB4221D8F80400A5
:100FA0008DF80B100DF10B0101220A2300F0F4FF64
:100FB0002021D8F804008DF80B100DF10B0101224F
:100FC0000A2300F0E9FF48460221012200F09CFBC1
:100FD000E320FFF719FB48460221002200F094FBB2
:100FE0004321D8F804008DF80B100DF10B010122FC
:100FF0000A2300F0D1FF0721D8F804008DF80B1068
:101000000DF10B0101220A2300F0C6FF4846022120
:10101000012200F079FBE020FFF7F6FA48460221B2
:10102000002200F071FBD8F804000DF10B01012241
:101030000A238DF80B7000F0AFFF1921D8F80400D7
:101040008DF80B100DF10B0101220A2300F0A4FF13
:1010500048460221012200F057FBE120FFF7D4FAB5
:1010600048460221002200F04FFBD8F804000DF1A1
:101070000B0101220A238DF80BB000F08DFF98219F
:10108000D8F804008DF80B100DF10B0101220A2392
:1010900000F082FF48460221012200F035FBE420E7
:1010A000FFF7B2FA48460221002200F02DFBD8F8E3
:1010B000040004240DF10B0101220A238DF80B40DA
:1010C00000F06AFFD8F804000DF10B010DF10A02DF
:1010D00001238DF80B50009601F082F8D8F8040037
:1010E0000DF10B010DF10A0201238DF80B50009652
:1010F00001F076F848460221012200F005FBE520C8
:10110000FFF782FA48460221002200F0FDFA05218D
:10111000D8F804008DF80B100DF10B0101220A2301
:1011200000F03AFFD8F804000DF10B010DF10A02AE
:1011300001238DF80B50009601F052F8D8F8040006
:101140000DF10B010DF10A0201238DF80B500096F1
:1011500001F046F848460221012200F0D5FAE220CB
:10116000FFF752FA48460221002200F0CDFAD8F8E3
:10117000040002270DF10B0101220A238DF80B70E8
:1011800000F00AFFD8F804000DF10B010DF10A027E
:1011900001238DF80B50009601F022F8D8F80400D6
:1011A0000DF10B010DF10A0201238DF80B50009691
:1011B00001F016F848460221012200F0A5FAE320CA
:1011C000FFF722FA48460221002200F09DFA03218F
:1011D000D8F804008DF80B100DF10B0101220A2341
:1011E00000F0DAFED8F804000DF10B010DF10A024F
:1011F00001238DF80B50009600F0F2FFD8F80400A0
:101200000DF10B010DF10A0201238DF80B50009630
:1012100000F0E6FF48460221012200F075FAE020C6
:10122000FFF7F2F948460221002200F06DFAD8F8E3
:1012300004000DF10B0101220A238DF80BA000F030
:10124000ABFED8F804000DF10B010DF10A020123E9
:101250008DF80B50009600F0C3FFD8F804000DF194
:101260000B010DF10A0201238DF80B50009600F0DE
:10127000B7FF48460221012200F046FAE120FFF7BD
:10128000C3F948460221002200F03EFAD8F80400D3
:1012900001218DF80B100DF10B0101220A2300F042
:1012A0007BFED8F804000DF10B010DF10A020123B9
:1012B0008DF80B50009600F093FFD8F804000DF164
:1012C0000B010DF10A0201238DF80B50009600F07E
:1012D00087FF48460221012200F016FA10204FF441
:1012E0008071FFF76DFC142040F27641FFF768FC37
:1012F0001F20FFF789F948460221002200F004FA76
:101300009B21D8F804008DF80B100DF10B01012280
:101310000A2300F041FED8F80400C0218DF80B101C
:101320000DF10B0101220A2300F036FE484602218E
:10133000012200F0E9F97520FFF766F9484602211D
:10134000002200F0E1F95521D8F804008DF80B10C7
:101350000DF10B0101220A2300F01EFED8F8040053
:101360000DF10B0101220A238DF80B7000F014FE21
:1013700048460221012200F0C7F9012000F088F858
:1013800048460221002200F0BFF99F21D8F804004E
:101390008DF80B100DF10B0101220A2300F0FCFD6A
:1013A000D8F804000DF10B0101220A238DF80B403F
:1013B00000F0F2FD48460221012200F0A5F903B039
:1013C000BDE8F08F43F6C800C0F6000001F042FE11
:1013D00003B0BDE8F08F0000012000F077B80000F6
:1013E00090F82110022923D1026840F2040C116800
:1013F000C4F2020C21F00E01116013682F21C4F217
:1014000002018A4223F00103136015DD3023C4F288
:1014100002039A421CD04423C4F202039A421BD016
:101420005823C4F202039A421CD14FF4803321E0C6
:1014300004218163012070470823C4F202039A4209
:101440000ED01C23C4F202039A420BD1102311E0E8
:101450004FF480730EE000BF4FF480530AE000BFEA
:10146000012307E00CF168014FF080738A4208BF46
:101470004FF48013CCF80030416B4FF48072002998
:10148000028404BF0020704780B58847002080BDDB
:10149000B0B5044600F03EF9054640F20000C2F245
:1014A00000000078611C18BF044400BF00F032F94E
:1014B000401BA042FAD3B0BD012818BF704740F2CC
:1014C0001800C2F2000001210160704740F214418F
:1014D000C4F201010A68024214BF08607047FFF7B6
:1014E000EBBF00002DE9F04F82B00E68002E00F037
:1014F000FF8040F20C4C40F2004E41F20042C4F238
:10150000010CC4F2010EC4F20102042700240123DD
:101510004FF0000A4FF00009904208BF03270097E0
:1015200049E000BF41F20002C4F20102009F904274
:1015300008BF022704F00C030F229A402BEA020294
:1015400007FA03F34FEA9A051A4346F825204E6836
:10155000F203DEF8002054BF22EA080242EA080241
:10156000CEF80020DEF80420B30354BF22EA0802BC
:1015700042EA0802CEF80420F302DEF8082054BF45
:1015800022EA080242EA0802B302CEF80820DCF898
:1015900000204FF0010354BF22EA080242EA080289
:1015A000CCF800200E680AF1010A36FA0AF204F1BA
:1015B000040400F09D8003FA0AFB16EA0B08F1D040
:1015C0004E684FF6FF72C1F21002964212DC122EE4
:1015D00056D8DFE806F0350B4D495555555555554C
:1015E0005555555555555545510000BFD1F80C90EE
:1015F00046E000BF4FF6FF72C1F2210296420FDCB7
:101600000022C1F2110296421AD00022C1F2120247
:10161000964215D00022C1F22102964210D02FE04E
:101620000022C1F2220296420AD00022C1F2310207
:10163000964205D00022C1F23202964220D100BF6C
:101640008A684AB1012A14BFC0F814B0C0F810B0BB
:101650004FF0080914E000BF4FF0040910E000BF8C
:10166000CA6802F104090BE04FF0000908E000BF6E
:10167000CA6802F1080903E0CA6802F10C0900BF58
:1016800002462646B8F5807F24BF0432203E176804
:101690000F25B54027EA050509FA06F6354315601A
:1016A000CA79D2067FF57EAF41F21803C4F2020375
:1016B0001A68AEF57E7642F001021A601A6802F0EE
:1016C00001020192019A2AF0030256F802B040F694
:1016D0000002C4F20102904208D040F60042C4F277
:1016E000010290427FF41EAF012723E7002721E784
:1016F00002B0BDE8F08F0000C26814230A4208BFA0
:101700001023C15070470000002A08BF090401617E
:101710007047000040F2B830C2F200000068704725
:1017200040F2000040F2B831C2F20000C2F2000103
:1017300000780A68104408607047000080B542F2E3
:101740000000C4F20200016841F0100101600320B2
:1017500000F08CF8002000F005F800F027F80020D9
:1017600080BD000070B540F20006C2F2000640F2F3
:1017700008013278C2F200014FF47A730968B3FBB2
:10178000F2F20446B1FBF2F1084600F0B1FE0F2C74
:101790004FF0010508D838B94FF0FF30214600223C
:1017A000002500F037F87460284670BD82B041F221
:1017B0001800C4F202000168022241F00101016038
:1017C000016801F0010101910199416841F08051E6
:1017D0004160406800F08050009000980420C4F2FE
:1017E0000100016862F31A61016002B070470000F5
:1017F000002848BF704700F01F01012202FA01F1E2
:101800001C2202EAD0004EF20012CEF200028150F9
:101810007047000010B54EF60C5CCEF2000CDCF800
:101820000030C3F3022E8EF00704042C28BF0424DA
:10183000BEF103034FF0FF3E0EFA04F438BF00235D
:10184000A14399400EFA03F39A43114300F00F02AB
:1018500000F160430901043A03F56443624400283F
:1018600048BF02F10C03197010BD00004EF60C5178
:10187000CEF200010A684FF6FF031A4060F30A2215
:1018800042F0806040F0FD7008607047002804BF9F
:10189000012070472DE9F04381B042F20008C4F204
:1018A00002080446D8F800000D4600F00700814207
:1018B0000CD9D8F8000020F007002843C8F8000031
:1018C000D8F8000000F00700A8426CD1206841F26F
:1018D00004098107C4F2020917D5410705D5D9F8D3
:1018E000001041F4E061C9F80010010705D5D9F8EE
:1018F000001041F46051C9F80010D9F80010A26836
:1019000021F0F0011143C9F80010C00742D1D8F806
:10191000000000F0070085420CD2D8F8000020F04B
:1019200007002843C8F80000D8F8000000F00700BE
:10193000A84238D12068410707D5D9F80010E268DD
:1019400021F4E0611143C9F80010000708D5D9F867
:101950000000216920F4605040EAC100C9F800008D
:10196000D9F8002002F00C00082841F20020C0F253
:101970007A004DD143F6B203C2F38341C0F60003AF
:10198000595CD20338D440F60010C0F23D00484301
:101990003EE000BF606859F8041C022808D0012806
:1019A00026D1890306D4012001B0BDE8F08300BF31
:1019B0008901F8D5D9F8001021F003010843C9F8CE
:1019C0000000FFF7A7FE064641F28837D9F800006D
:1019D000616800F00C00B0EB810F98D0FFF79AFE21
:1019E000801BB842F2D9032001B0BDE8F08300BFEC
:1019F0008907D8D5DEE700BFD9F8002043F6980361
:101A0000C2F34042C0F600039A5C4843B0FBF2F0D8
:101A1000D9F8001043F69A02C1F30311C0F6000290
:101A2000515C40F2080220FA01F140F20400C2F2D7
:101A300000000068C2F200021160FFF793FE002070
:101A400001B0BDE8F083000040F2080041F204015B
:101A5000C2F20000C4F202010068096843F6AA025B
:101A6000C1F30221C0F60002515CC840704700007B
:101A700040F2080041F20401C2F20000C4F2020187
:101A80000068096843F6AA02C1F3C221C0F6000249
:101A9000515CC84070470000002804BF0120704717
:101AA0002DE9F04182B00446007841F20006C007FB
:101AB000C4F202060CD0706800F00C00042840F05C
:101AC00081803068800303D56068002800F046817B
:101AD000207880071BD5706810F00C0F09D0706853
:101AE00000F00C00082840F087807068C00300F107
:101AF00083803068800703D52069012840F02E815B
:101B00003068616920F0F80040EAC1003060207858
:101B1000000713D4207840072CD4E569002D00F08D
:101B20001881706800F00C00082840F0A780012D93
:101B300040F00481012002B0BDE8F081A0690028D6
:101B400000F084800020C4F242200121C0F88014FB
:101B5000FFF7E0FD054600BF706A800700F1B28024
:101B6000FFF7D8FD401B0228F6D9032002B0BDE8DC
:101B7000F08100BFF0695FEAC00808D4F06940F066
:101B80008050F061F06900F080500090009847F2BA
:101B90000007C4F200073868C00549D4386840F42B
:101BA00080703860FFF7B6FD054600BF3868C00595
:101BB0003ED4FFF7AFFD401B6428F7D9032002B0E5
:101BC000BDE8F081706800F00C00082803D170684F
:101BD000C0033FF576AF61683068002900F00C81E2
:101BE000B1F5A02F00F00081B1F5803F40F01A81DF
:101BF00040F480301CE100BF2069002840F2000062
:101C0000C4F2422000F0888001210160FFF782FDCC
:101C1000054600BF306880073FF572AFFFF77AFDD9
:101C2000401B0228F6D9032002B0BDE8F08100BFB6
:101C3000E168306A002900F09D80052900F092805B
:101C4000012940F0AF8040F00100B1E00020C4F273
:101C500042200021C0F88014FFF75CFD054600BF5C
:101C6000706A80077FF556AFFFF754FD401B0228CE
:101C7000F6D9032002B0BDE8F08100BF0027C4F20E
:101C8000422700203866FFF745FD022D05460DD19D
:101C90003068800140F1DE80FFF73CFD401B0228E8
:101CA0004FF00300F4D902B0BDE8F0813068800144
:101CB0004FD5FFF72FFD401B02284FF00300F5D949
:101CC000F1E700BF40F20800C2F20000006844F6ED
:101CD000D351C1F26201A0FB0101480A019000BF8B
:101CE00000BF0198411E002801913FF413AF00BFCF
:101CF0000198411E002801913FF40CAF00BF0198EC
:101D0000411E002801913FF405AF00BF0198411E1C
:101D100000280191E4D1FDE600210160FFF7FAFC03
:101D2000054600BF306880077FF5F1AEFFF7F2FC93
:101D3000401B02284FF00300F4D9B4E77068216A11
:101D400000F480328A4209D1616A00F4701088423E
:101D500004D1002002B0BDE8F08100BF012002B034
:101D6000BDE8F08140F004003062306A40F00100CC
:101D70001EE000BF20F001003062306A20F0040055
:101D80003062FFF7C7FC054641F28837306A8007AA
:101D900020D5FFF7BFFC401BB8424FF00300F5D938
:101DA00081E700BF20F001003062306A20F00400BB
:101DB0003062FFF7AFFC054641F28837306A800792
:101DC00008D4FFF7A7FC401BB842F7D9032002B0A4
:101DD000BDE8F081B8F1000F3FF59FAEF06920F04B
:101DE0008050F06199E600BF40F480203060306898
:101DF00040F480301CE000BF20F480303060306858
:101E000020F480203060FFF785FC054630688003B1
:101E10007FF55EAEFFF77EFC401B64284FF00300A9
:101E2000F4D940E720F480303060306820F480201E
:101E30003060FFF76FFC0546306880033FF548AE21
:101E4000FFF768FC401B6428F6D9032002B0BDE808
:101E5000F08100BF206AB0F5803F05D17168A268AB
:101E600021F40031114371607168626A21F47411C8
:101E700011430843706001203866FFF74BFC0446AD
:101E8000306880013FF565AFFFF744FC001B022876
:101E90004FF00300F4D906E7002804BF0120704783
:101EA000B0B504460020A06294F8511029B984F816
:101EB0005000204600F032F80020022184F8511032
:101EC000D4E9001ED4E9023C0A6822F040020A600C
:101ED00043EA0E02236942EA0C0242EA030CD4E907
:101EE0000532E5694CEA030C02F4007E4CEA0E036D
:101EF00043EA050C256AA36A45EA0C052B430B60EF
:101F0000042303EA12424A60CA6922F40062CA61E9
:101F10000121606584F85110B0BD000070B586B035
:101F200040F60004C4F20104006804F520510026C4
:101F300088420596CDE90366029601D006B070BDD1
:101F400041F21800C4F20200016802AD41F4805170
:101F50000160016801F4805101910199016841F02B
:101F6000040101600068294600F004000190019816
:101F7000A020029002200390032005902046FFF746
:101F8000B1FA4020CDE90206204629460496FFF723
:101F9000A9FA06B070BD00002DE9F04381B00446F7
:101FA00090F85000012803D1022001B0BDE8F08371
:101FB0004FF001081D460F46164684F85080FFF783
:101FC000A9FB94F85110012942D18146002F4FF00E
:101FD000010018BF002E00F0FB800320002284F8CF
:101FE000510062652763A686E686A263A287E28720
:101FF000A0683146B0F5004F20682264626403D1C6
:10200000026842F4804202600268520603D4026809
:1020100042F04002026062680139E368B2FA82F27B
:10202000B1FA81F152094909B3F5006F41EA0201A1
:102030003CD131B137F8021BC1602763E08E013813
:10204000E086E08E00286BD0681C0ED11DE000BF3A
:102050000220BDE0216B31F8022BC2602163E08ECB
:102060000138E086E08E00285AD020688168890710
:10207000F0D4FFF74FFBA0EB0900A842F2D338E001
:10208000FFF748FBE08E00284AD020688168890766
:10209000F6D5216B31F8022BC2602163E08E013846
:1020A000E086E08E0028F0D13AE000BF39B13978FF
:1020B0000173206B01302063E08E0138E086E08EF2
:1020C00070B3681C0BD11BE0216B09780173206B86
:1020D00001302063E08E0138E086E08E00B3206896
:1020E00081688907F0D4FFF715FBA0EB0900A8422F
:1020F000F3D303206CE000BFFFF70CFBE08E78B158
:10210000206881688907F7D5216B09780173206BF6
:1021100001302063E08E0138E086E08E0028EFD1A8
:1021200020688168090646D5691C0ED0FFF7F2FACF
:10213000A0EB09012068A94212D281680906F5D4F2
:1021400039E000BF8168090635D58168090632D5B6
:102150008168090644BF81685FEA01612BD5F1E718
:10216000416821F0E00141606168B1F5827F0AD1E8
:10217000A168B1F5004F02D0B1F5806F03D10168BD
:1021800021F040010160A16AB1F5005F07D101684B
:1021900021F400510160016841F400510160012106
:1021A00084F85110002184F85010616D41F0200135
:1021B000616520216165A16831B900210091C16884
:1021C0000091806800900098606D002818BF012081
:1021D000002184F8518084F8501001B0BDE8F083EC
:1021E0002DE9F04182B0044690F85000012803D157
:1021F000022002B0BDE8F08101201F4615460E46C0
:1022000084F85000FFF786FA94F8511080460129AF
:1022100040F09680002E4FF0010018BF002D00F016
:102220005D81002F00F05A8194F8510000210428AC
:102230001CBF052084F851006165A563E787A78767
:102240002663E7862068A7862164616401684906E1
:1022500003D4016841F04001016061687B1EE268BF
:10226000B1FA81F1B3FA83F3089D49095B09B2F52C
:10227000006F41EA030173D131B136F8021BC1602E
:102280002663E08E0138E0860126681C31D101E02A
:10229000FFF740FAE08E18B9E08F002800F0C88000
:1022A0002068816889070CD5E18E51B1012E08D1D3
:1022B000216B002631F8022BC2602163E18E0139C7
:1022C000E1868168C907E3D0E18F0029E0D0C068CA
:1022D000A16B012621F8020BA163E08F0138E08792
:1022E000D6E700BFFFF716FAA0EB0800A84280F07F
:1022F000B180E08E18B9E08F002800F09980206846
:10230000816889070CD5E18E51B1012E08D1216B6E
:10231000002631F8022BC2602163E18E0139E1868B
:102320008168C907DED0E18F0029DBD0C068A16BCE
:10233000012621F8020BA163E08F0138E087D1E785
:102340006068B0F5827F09D104294FF0020040F0A7
:10235000C580A16800293FF45DAFBFE00220BDE069
:1023600039B131780173206B01302063E08E013880
:10237000E0860126681C33D102E000BFFFF7CAF9EE
:10238000E08E10B9E08F002852D02068816889075C
:102390000ED5E18E61B1012E0AD1216B002609789C
:1023A0000173216B206801312163E18E0139E186DF
:1023B0008168C907E2D0E18F0029DFD0C068A16B36
:1023C00001260870A06B0130A063E08F0138E08720
:1023D000D4E700BFFFF79EF9A0EB0800A84239D26E
:1023E000E08E08B9E08F18B32068816889070ED5A0
:1023F000E18E61B1012E0AD1216B002609780173AB
:10240000216B206801312163E18E0139E186816809
:10241000C907DFD0E18F0029DCD0C068A16B01269D
:102420000870A06B0130A063E08F0138E087D1E72E
:102430002168886800061CD5681C10D0FFF76AF96F
:10244000A0EB08002168A84220D288680006F5D4D5
:102450000FE000BF032041E08868000609D58868C6
:10246000000606D58868000644BF88685FEA0060F9
:10247000F2D4A06800284FF000002FD10190CA6864
:10248000019289680191019928E000BF486820F015
:10249000E00048606068B0F5827F0AD1A068B0F5BE
:1024A000004F02D0B0F5806F03D1086820F04000E3
:1024B0000860A06AB0F5005F07D1086820F40050FA
:1024C0000860086840F400500860012084F851005A
:1024D000616D41F02001616520216165012184F871
:1024E0005110002184F8501002B0BDE8F0810000C6
:1024F000411E0020B0EB116F1CBF012070474EF24F
:102500001002CEF2000251604EF62351CEF20001CD
:10251000F0230B7007219060116070477047000036
:102520007047000090F83C20012A4FF0020219D0B9
:1025300080B580F83D2002685368D2F808C091E861
:10254000024023F0700319432CF0800343EA0E038A
:10255000516093600121002280F83D1080F83C20FA
:10256000BDE8804010467047002804BF0120704736
:1025700010B590F83D1031B9002180F83C100446A8
:1025800000F056F82046022180F83D10016840F224
:10259000FF740B68C4F2000442F6004CA142C4F27E
:1025A000010C15DCB1F1804F1AD040F20042C4F2A8
:1025B0000002914214D0A14218DCB1F1804F1DD02D
:1025C00040F20042C4F20002914217D01AE000BF6C
:1025D000614505D040F60002C4F200029142EAD102
:1025E000826823F070031343A142E6DD614505D004
:1025F00040F60002C4F20002914203D1026923F4C2
:1026000040731343846923F08002D0F804E0C36868
:10261000224361450A60CB62C1F828E002D14269D9
:10262000CCF8302001224A6180F83D20002010BD06
:1026300010B582B0006840F20041C4F20001884247
:1026400014D0B0F1804F2BD141F21C00C4F2020033
:102650000168002241F0010101600068012100F0E1
:102660000100019001981C201C2410E041F21C0084
:10267000C4F202000168002241F00201016000681A
:10268000002100F00200009000981D201D24FFF79B
:10269000C1F8204602B0BDE81040FFF7A9B800BF5E
:1026A00002B010BD0068C16841F00101C1608168DD
:1026B00001F00701062903D0016841F00101016022
:1026C0000020704790F83C20012A4FF0020248D0C9
:1026D00080B580F83D20D0F800C04FF67772DCF866
:1026E000083023EA0202CCF808200B683F2B1DDDDE
:1026F0005F2B39DD602B5BD0B3F5005F00F0988075
:10270000702B26D1D1E901E3C968DCF8082043EA3F
:102710000E0322F47F4243EA01211143CCF8081052
:10272000DCF8081041F0770111E000BF1F2B03DC3B
:1027300033B1102B04D00CE0202B01D0302B08D16A
:10274000DCF8081021F07001194341F00701CCF8C2
:1027500008100121002280F83D1080F83C20BDE8DF
:1027600080401046704700BF402B41D0502BF0D125
:10277000D1F804E0C968DCF82030DCF8202022F031
:102780000102CCF82020DCF8182022F0F00242EA06
:10279000011123F00A0242EA0E02CCF81810CCF81C
:1027A0002020DCF8081041F0570121F02001CEE78D
:1027B000D1F804E0C968DCF8203023F01003CCF82D
:1027C0002030DCF81830DCF8202023F4704322F0AD
:1027D000A00243EA013142EA0E12CCF81810CCF8FC
:1027E0002020DCF8081041F0670121F01001AEE76D
:1027F000D1F804E0C968DCF82030DCF8202022F0B1
:102800000102CCF82020DCF8182022F0F00242EA85
:10281000011123F00A0242EA0E02CCF81810CCF89B
:102820002020DCF8081041F0470121F030018EE74C
:10283000D1E901E3C968DCF8082043EA0E0322F479
:102840007F4243EA01211143CCF80810DCF808105C
:1028500041F480417BE700007047000010B501683B
:1028600004460869800744BFC8685FEA807039D4AD
:102870000869400744BFC8685FEA40703ED40869F1
:10288000000744BFC8685FEA007045D40869C00605
:1028900044BFC8685FEAC0604AD40869C0071CBF6B
:1028A000C8685FEAC07051D10869000644BFC868B3
:1028B0005FEA006052D40869400644BFC8685FEA16
:1028C000406053D40869800646BFC8685FEA8060EC
:1028D00010BD6FF0200220460A61BDE81040FFF7EE
:1028E0001FBE00BF6FF002000861012020778869D9
:1028F000800743D02046FFF7AFFF45E06FF00400AC
:10290000086102202077886910F4407F40D020467B
:10291000FFF7A2FF42E000BF6FF00800086104204B
:102920002077C86980073DD02046FFF795FF3FE03C
:102930006FF01000086108202077C86910F4407F0C
:102940003AD02046FFF788FF3CE000BF6FF001005F
:102950000861204600F03EF82168A5E76FF080008E
:1029600008612046FFF7DAFD2168A4E76FF0400018
:102970000861204600F052F82168A3E7204600F0E5
:1029800025F8204600F024F82168002020776FE722
:10299000204600F01BF8204600F01AF821680020BD
:1029A00020776CE7204600F011F8204600F010F880
:1029B00021680020207769E7204600F007F82046CC
:1029C00000F006F821680020207766E770470000D5
:1029D000704700000068B0F1804F01D0704700BF21
:1029E00040F25E00C2F20000007800F0FD00012815
:1029F00018BF704780B540F60040C4F201004FF4A4
:102A00008061FEF779FE40F21800C2F20000016812
:102A100001310160BDE88040704700007047000050
:102A200070470000B0B501680A68CC684B6902F0D5
:102A30002F05202D04F0200512D18DB190F83A20F9
:102A4000222A40F017818268B2F5805F3ED1036987
:102A5000826A4968002B61D0C9B222F8011B61E08B
:102A60005FEA027C1EBF03F0010E04F4907313EBC7
:102A70000E0337D1130617D514F0800314D090F845
:102A80003920212A40F0F6808368026AB3F5805F1E
:102A900030D113886FF35F234B600369002B14BFA1
:102AA00001320232026229E0520640F1E38014F062
:102AB000400208BFB0BDCA6822F04002CA602021AF
:102AC00080F83910BDE8B04000F05EBA026949688C
:102AD000002A826A18BF01F07F01531C83621170C3
:102AE00021E000BFD30718BF14F4807336D1530719
:102AF0003AD440E0531C036212784A60C28C013A17
:102B00001304C28440F0B680C86820F08000C8601A
:102B1000C86840F04000C860B0BD00BF6FF35F21DF
:102B200022F8021B8262C18D01390A04C18540F07E
:102B3000A1800168CA6822F02002CA60CA6822F433
:102B40008072CA604A6922F001024A61202180F83D
:102B50003A10BDE8B04000F051B900BFC36B43F07C
:102B60000103C363530706D5BEF1000F03D0C36B47
:102B700043F00203C363930706D5BEF1000F03D0F1
:102B8000C36B43F00403C363BCF1000F06D5BEF171
:102B9000000F03D0C36B43F00803C363C36B002B68
:102BA00068D092063BD5D5B390F83A20222A36D188
:102BB0008268B2F5805F07D10369826A49687BB198
:102BC000C9B222F8011B0FE002694968002A826A33
:102BD00018BF01F07F01531C8362117005E000BF34
:102BE0006FF35F2122F8021B8262C18D4A1EC285EB
:102BF0000168120413D1CA68044622F02002CA6098
:102C0000CA6822F48072CA604A6922F001024A61ED
:102C1000202180F83A1000F0F1F8216820464A6936
:102C2000C36B02F0400203F00803D21824D0CA6834
:102C300022F49072CA604A6922F001024A6120229D
:102C400080F83A204A6952061CD54A6922F04002AF
:102C50004A61416BB1B143F23D02C0F60002044645
:102C600008464A63FEF7BCFB20B1606B416BBDE8D0
:102C7000B0400847B0BD00BF0446FFF7D1FE0020BA
:102C8000E063B0BDBDE8B040FFF7CABE002804BF96
:102C90000120704710B5044690F8390028B900208B
:102CA00084F83800204600F061F8242084F83900C8
:102CB0002068D4E90212C36823F40053C360036997
:102CC00023F440531A430261D4E904231143C26838
:102CD000194341F20C639A431143C1604169A269EF
:102CE00021F44071114343F60002C4F20102904204
:102CF000416103D0FEF7A8FE02E000BFFEF7B8FE78
:102D0000D4E90023192148439900B0FBF1F048F2BF
:102D10001F5CC5F2EB1CA0FB0C314FF69C734909FC
:102D2000C0F6FF7301FB0300322303EB0010A0FB8E
:102D30000C03F02000EA531000EB0110C3F3431121
:102D4000084490601069202120F49040106150697F
:102D500020F02A005061D06840F40050D06000207C
:102D6000E06384F8391084F83A1010BD70B586B06D
:102D700040F60004C4F20104006804F54051002646
:102D800088420596CDE90366029601D006B070BD73
:102D900041F21800C4F20200016802AD41F4804122
:102DA0000160016801F4804101910199016841F0DD
:102DB000040101600068294600F0040001900198B8
:102DC0004FF40070029002200390032005902046EB
:102DD000FEF788FB4FF48060CDE9020620462946C5
:102DE0000496FEF77FFB252000210022FEF712FD4E
:102DF0002520FEF7FDFC06B070BD00007047000006
:102E00002DE9F041044690F8390020280CD10E46F7
:102E100000294FF0010018BF002A01D1BDE8F08160
:102E200094F83800012803D10220BDE8F08100BFEA
:102E3000012084F838000020E06321201D4684F83A
:102E400039001746FEF766FCA784E784E18C074645
:102E500000295FD005F1010806E000BF16F8011B4C
:102E60004160E18C002956D0E08C0138E084206874
:102E7000A1680268B1F5805F4FEA02611CD10029A8
:102E80000DD4B8F1000F29D0002D6AD0FEF742FC16
:102E9000C11B2068A94264D801680906F6D53188AB
:102EA0006FF35F2141602169002914BF01360236AA
:102EB000E18C0029D8D12EE00029CFD4B8F1000F41
:102EC0001AD0002D4DD000BFFEF724FCC11B206896
:102ED000A94246D801680906F6D5BFE70168090688
:102EE000DDD4016809065CBF01685FEA0161D6D4E0
:102EF00001680906F2D5D2E701680906AED4016877
:102F000009065CBF01685FEA0161A7D40168090690
:102F1000F2D5A3E72068016849060FD40DB3691CF8
:102F200019D10168490609D4016849065CBF0168E6
:102F30005FEA416102D401684906F2D5202084F895
:102F400039000020002184F83810BDE8F08100BF6E
:102F500000684006F2D4FEF7DDFBC11B2068A942E1
:102F6000F6D9C16821F4D071C160416921F0010135
:102F70004161202084F8390084F83A0003200021C0
:102F800084F83810BDE8F08170470000FEE70000CB
:102F9000FEE70000FDF714BD10B540F29B04C2F23D
:102FA000000400BF20464FF40071FDF77BFB0028B2
:102FB00008BF10BD217B0829F4D181B22A29F1D3A1
:102FC000607B0628EED12046FDF71CF9EAE70000F9
:102FD000704700007047000070470000FEF7A0BB7C
:102FE00041F20000C4F202000168002241F0010138
:102FF00001604168CFF6FF021140416001684FF661
:10300000FF72CFF6F66211400160016821F4802161
:103010000160416821F4FE0141604FF41F018160AD
:103020004EF60850CEF200004FF00061016070478C
:1030300040F2F420C2F20000FFF710BC406A002109
:10304000C185C184FFF7ECBC40F27431C2F20001CB
:1030500008607047B0B540F27431C2F200010C68EC
:103060000546FDF75FF882B2204629466423BDE895
:10307000B040FFF7C5BE000040F27830C2F2000059
:10308000FFF7D0BCFEE70000ADF5067D40F6004836
:10309000C4F20108FEF752FB00244FF480300227EF
:1030A000CDE90104CDE907704FF4E0100126099045
:1030B0006846CDE90544CDE9034400960496FEF741
:1030C000EBFC0F20CDE980074FF4806980A8022136
:1030D0008294CDE98394FEF7D9FB41F21800CDE943
:1030E0000244CDE90044C4F202000168012241F02B
:1030F00020010160016801F0200180918099016840
:1031000041F004010160016801F00401809180999F
:10311000016841F0080101600068022100F0080028
:10312000809080984046FEF7EFFA40464FF4806169
:103130000122FEF7E9FA40F6010000900020C1F2FA
:1031400021006D46CDE9010640462946FEF7CAF941
:103150000320039040462946CDE900760296FEF70B
:10316000C1F940462946CDE90096CDE90247FEF770
:10317000B9F9062000210022FEF74CFB0620FEF7DD
:1031800037FB40F29C2508F51050C2F200054FF4C1
:10319000827185E813000A204FF400721023C5E9FC
:1031A0000A402846C5E90344C5E90542EB61C5E983
:1031B0000844FEF771FE40F2783608F53050C2F24E
:1031C00000064FF4E1310C2286E813003046C6E9D0
:1031D0000344C6E90524F461FFF758FD40F2F427E3
:1031E000C2F200074FF0804041F61F4940F6C3117C
:1031F000C7E9000938460394CDE90144CDE980448C
:10320000C7E902413C61BC61FFF7AEF94FF4805A57
:1032100069463846CDF800A0FFF754FA80A9384631
:10322000FFF780F940F23437A8F58430C2F2000786
:1032300042F20F71C7E9000938460394CDE9014411
:10324000CDE98044C7E902413C61BC61FFF78CF9DC
:1032500069463846CDF800A0FFF734FA80A9384611
:10326000FFF760F93046FFF7EFFE2846FDF714FD43
:1032700040F21405C2F200052846EC70FDF7A6F8EE
:103280000A20FEF705F90134B4F5807FF4D143F646
:103290002E10C0F60000FFF7DDFE40F2F420C2F26F
:1032A0000000FFF7FFF940464FF48061002200263E
:1032B000FEF72AFAC820E8702846FDF787F80A20AA
:1032C000FEF7E6F8C920E8702846FDF77FF80A20E7
:1032D000FEF7DEF8CA20E8702846FDF777F80A20E6
:1032E000FEF7D6F8CB20E8702846FDF76FF80A20E5
:1032F000FEF7CEF8CC20E8702846FDF767F80A20E4
:10330000FEF7C6F8CD20E8702846FDF75FF80A20E2
:10331000FEF7BEF8CE20E8702846FDF757F80A20E1
:10332000FEF7B6F8CF20E8702846FDF74FF80A20E0
:10333000FEF7AEF8D020E8702846FDF747F80A20DF
:10334000FEF7A6F8D120E8702846FDF73FF80A20DE
:10335000FEF79EF8D220E8702846FDF737F80A20DD
:10336000FEF796F8D320E8702846FDF72FF80A20DC
:10337000FEF78EF8D420E8702846FDF727F80A20DB
:10338000FEF786F8D520E8702846FDF71FF80A20DA
:10339000FEF77EF8D620E8702846FDF717F80A20D9
:1033A000FEF776F8D720E8702846FDF70FF80A20D8
:1033B000FEF76EF840464FF480610122FEF7A4F953
:1033C0006C468DF8006201E0FFF7E6FD9DF8000213
:1033D0000028F9D020464FF400718DF80062FDF707
:1033E00061F9F1E70FB4084B10B504A902AA0398DC
:1033F00000F01CF8044602A9002000F048FA20461C
:1034000010BC5DF814FB00008F38000802E008C80B
:10341000121F08C1002AFAD170477047002001E04E
:1034200001C1121F002AFBD1704700002DE9FF4F98
:103430008DB00F460546002606E025280BD0DDE9B5
:103440000F1290476D1C761C28780028F5D111B01A
:103450003046BDE8F08F0024A246A1460122EC4987
:1034600000E0044315F8013F203B02FA03F0084254
:10347000F7D128782A2810D06FF02F022878A0F1F1
:103480003001092914D80AEB8A0102EB410144F00A
:10349000020400EB010A6D1CF0E701CF5FEA000AAD
:1034A00003D544F40054CAF1000A44F002046D1C30
:1034B00028782E2817D115F8010F44F004042A2883
:1034C0000ED06FF02F022878A0F1300109290AD818
:1034D00009EB890102EB410100EB01096D1CF2E7E8
:1034E00057F8049B6D1C28786C280FD006DC4C28FC
:1034F00017D068280DD06A2814D104E0742810D0A1
:103500007A280FD10DE044F400140AE044F480144A
:1035100001E044F440146978814202D104F580143A
:103520006D1C6D1C2A786E2A1FD00CDC632A31D0EA
:1035300004DC002A8BD0582A11D1A3E0642A68D079
:10354000692A0CD165E0732A2ED004DC6F2A73D06F
:10355000702A04D19BE0752A6FD0782A6ED010466D
:10356000DDE90F129047761C50E1C4F302500228A7
:1035700006D0032809D0042801CF09D0066045E110
:1035800001CFF117C0E9006140E101CF06803DE1C4
:1035900006703BE117F8040B8DF8000000208DF851
:1035A0000100EB46012003E057F804BB4FF0FF3069
:1035B00061074FF0000102D40DE008F101018846D7
:1035C00049450FDA8045F8DB1BF808100029F4D1D3
:1035D00008E008F1010188468142FADB1BF8081077
:1035E0000029F6D1DDE90F23AAEB08008146214628
:1035F00000F036F9304400EB080604E0DDE90F1274
:103600001BF8010B9047B8F10108F7D22146484654
:10361000F7E00A21C4F302534FF0000B0891022B8C
:1036200004D001CFC117032B09D00AE0FF1D27F0FA
:103630000707F7E8020108E032E01FE020E000B2EF
:10364000C117042B01D140B2C117031E71F1000351
:1036500007DA4FF0000CD0EB0C006CEB01012D23CE
:1036600002E0230504D52B238DF82430012303E049
:10367000E30701D02023F7E7984658E00A2110E03D
:1036800010210EE010204FF0000B08900CE01021EC
:103690004FF0000B44F004044FF00809089103E0D8
:1036A00008214FF0000B0891C4F30253022B04D001
:1036B00001CF0021032B06D006E0FF1D27F00707EE
:1036C000F7E8020103E080B2042B00D1C0B24FF052
:1036D000000823072BD5702A07D0DDF820C08CF016
:1036E000100C5CEA0B0C05D00EE040238DF8243062
:1036F000012308E050EA010306D030238DF824307E
:103700008DF8252002239846DDF820C08CF0080CA7
:103710005CEA0B0C0BD150EA010301D1630706D51B
:1037200030238DF824304FF00108A9F10109582AFF
:1037300004D038A20B9208AA0A920BE03AA2F9E749
:103740005B46089AFCF7F5FC0B9B9B5C0A9A521EA1
:103750000A92137050EA0102F2D10A98ADEB000010
:1037600000F1200B600702D524F4803401E04FF013
:103770000109D94502DDA9EB0B0000E0002000EBB8
:103780000B0141440890AAEB010AE00306D4DDE9ED
:103790000F232146504600F063F806444FF000091D
:1037A00008E009A911F80900DDE90F12904709F1B5
:1037B0000109761CC145F4DBE0030CD5DDE90F23DC
:1037C0002146504600F04CF8064404E0DDE90F12B3
:1037D00030209047761C0899481E08900029F5DC97
:1037E00008E00A980A990078491C0A91DDE90F124D
:1037F0009047761CBBF10001ABF1010BF1DC2146D7
:103800005046DDE90F2300F019F806446D1C1BE655
:1038100009280100303132333435363738396162A6
:10382000636465660000000030313233343536376A
:103830003839414243444546000000002DE9F0413B
:10384000044600251E461746880404D405E0394680
:103850002020B0476D1C641EF9D52846BDE8F081D4
:103860002DE9F041044600251E469046C80301D5C7
:10387000302700E02027880404D505E0414638467B
:10388000B0476D1C641EF9D52846BDE8F0810A6872
:10389000531C0B6010707047010200000000000014
:1038A00000000102030406070809000000000102ED
:1038B000030402030405060708090A0B0C0D0E0F8A
:1038C00010100000200719984B686F692074616F11
:1038D000206D6F64756C6520454E4332384A363032
:1038E00020746861742062616920210D0A005468A7
:1038F000696574206269206C6120256920697020E7
:1039000025692E25692E25692E2569203D20253023
:1039100032583A253032583A253032583A2530322A
:10392000583A253032583A253032580D0A004B6843
:103930006F6920646F6E67207468616E6820636FC2
:103940006E670D0A496E20726120646961206368A8
:103950006920636163207468696574206269206C02
:1039600075752074726F6E672062616E670D0A0A4A
:10397000000000009839000800000020200000002E
:103980000C340008B839000820000020A00700000F
:103990001C340008000000000100000010000000BE
:1039A0000024F40001000000C0A800D2C0A800005C
:0839B00001000000000000000E
:04000005080000ED02
:00000001FF
